:100000000C9409010C9480030C94A6030C94BE0A72
:100010000C940A0A0C9426010C9426010C942601D7
:100020000C9426010C9426010C94C80E0C94260105
:100030000C9426010C9497140C9426010C94260120
:100040000C9426010C9426010C9426010C94BC12ED
:100050000C94260154686520526F626F74206E659F
:1000600065647320746F20626520726573657474B3
:100070006564206E6F772E0A0A00596F75206E65D1
:10008000656420746F20636865636B204D6F746FC7
:100090007220617373656D626C7920286F722079AC
:1000A0006F757220736F667477617265292E0A0A04
:1000B000000A0A28732E207461736B5F6D6F746F72
:1000C00072436F6E74726F6C28292066756E63744C
:1000D000696F6E20696E205250364C696221290A80
:1000E000000A0A232323204D4F544F52204F5645D8
:1000F0005243555252454E54202323230A00596F30
:1001000075206E65656420746F20636865636B207D
:10011000456E636F6465722F4D6F746F72206173EB
:1001200073656D626C7920286F7220796F7572200B
:10013000736F667477617265292E0A0A00210A0AB4
:1001400028732E207461736B5F6D6F746F72436FD1
:100150006E74726F6C28292066756E6374696F6E99
:1001600020696E205250364C696221290A0052499A
:10017000474854004C4546540041666665637465C3
:1001800064206368616E6E656C3A000A2323232045
:10019000454E434F44455220284F52204D4F544F17
:1001A0005229204D414C46554E4354494F4E212033
:1001B0002323230A00232323232320414C4C204FB5
:1001C0005045524154494F4E532053544F5050457F
:1001D0004420544F2050524556454E5420414E59CC
:1001E0002044414D414745212023232323230A0056
:1001F0000A0A232323232320454D455247454E43D6
:10020000592053485554444F574E2023232323232A
:100210000A0011241FBECFE5D8E0DEBFCDBF12E03B
:10022000A0E6B0E0E0E3F2E502C005900D92AE3545
:10023000B107D9F714E0AEE5B2E001C01D92AE30CF
:10024000B107E1F70E947F150C9416290C94000069
:10025000DF93CF93CDB7DEB780919902843010F051
:1002600010929902CF91DF910895DF93CF93CDB78C
:10027000DEB784E080939902CF91DF910895DF93F8
:10028000CF9300D0CDB7DEB7A7E3B0E0E7E3F0E06F
:1002900080818C778C93A8E3B0E0E8E3F0E0808184
:1002A0008C778C938091C7028870882371F0A7E3C4
:1002B000B0E0E7E3F0E0808180688C93A8E3B0E0F1
:1002C000E8E3F0E0808180688C938091C7028071C0
:1002D000882371F0A7E3B0E0E7E3F0E0808182607B
:1002E0008C93A8E3B0E0E8E3F0E0808182608C9337
:1002F0008091C7028072882371F0A7E3B0E0E7E342
:10030000F0E0808181608C93A8E3B0E0E8E3F0E066
:10031000808181608C93A4E3B0E0E4E3F0E080812D
:100320008F788C93A5E3B0E0E5E3F0E080818F78EF
:100330008C93A4E3B0E0E4E3F0E08081282F809187
:10034000C702882F90E082959295907F9827807FB2
:1003500098278077822B8C93A5E3B0E0E5E3F0E06B
:100360008081282F8091C702882F90E082959295F6
:10037000907F9827807F98278077822B8C9380911D
:100380009902882359F48091C7028A838A8188233D
:1003900011F081E08A838A81898303C08091990268
:1003A00089838981809399020F900F90CF91DF917B
:1003B0000895DF93CF930F92CDB7DEB789838981FC
:1003C0008093C7020E943F010F90CF91DF91089563
:1003D000DF93CF930F92CDB7DEB7A8E3B0E0E8E3A9
:1003E000F0E080818E7F8C93A7E3B0E0E7E3F0E05C
:1003F00080818E7F8C930000E6E3F0E08081817045
:1004000089838091C7028072882371F0A7E3B0E0EE
:10041000E7E3F0E0808181608C93A8E3B0E0E8E35B
:10042000F0E0808181608C9389810F90CF91DF9182
:100430000895DF93CF930F92CDB7DEB7A5E3B0E079
:10044000E5E3F0E080818F7B8C93A4E3B0E0E4E30C
:10045000F0E080818F7B8C930000E3E3F0E080810B
:10046000807489838091C7028470882371F0A4E32B
:10047000B0E0E4E3F0E0808180648C93A5E3B0E039
:10048000E5E3F0E0808180648C9389810F90CF91C7
:10049000DF910895DF93CF93CDB7DEB7CF91DF9192
:1004A0000895DF93CF9300D0CDB7DEB79A838983C9
:1004B00089819A8190936100809360000F900F90E2
:1004C000CF91DF910895DF93CF9300D0CDB7DEB702
:1004D0008091D2028333E8F00E94E8018A830E946F
:1004E00019028983909182028A81981729F4909148
:1004F000E3028981981759F08A8180938202898169
:100500008093E302E0916000F09161000995109200
:10051000D2020F900F90CF91DF910895DF93CF9388
:1005200000D00F92CDB7DEB78983E6E2F0E080819C
:10053000882F90E080749070009719F01B821A82C7
:100540001FC0E7E2F0E0898180648083E6E2F0E0AA
:1005500086ED8083E6E2F0E08081882F90E0807471
:1005600090700097B9F7A6E2B0E0E6E2F0E0808193
:1005700080618C93E4E2F0E0808191819B838A83A7
:100580008A819B810F900F900F90CF91DF910895FA
:10059000DF93CF930F92CDB7DEB78983E7E2F0E028
:1005A000898180648083E6E2F0E086ED80830F90AD
:1005B000CF91DF910895DF93CF9300D0CDB7DEB711
:1005C000E6E2F0E08081882F90E0807490700097E0
:1005D00009F091C080916302282F30E03A8329838B
:1005E00089819A818330910509F44AC029813A8131
:1005F000243031057CF489819A818130910541F163
:1006000029813A81223031057CF589819A810097D0
:1006100099F065C029813A812530310509F448C037
:1006200089819A8185309105BCF129813A812630F2
:10063000310509F449C053C0E4E2F0E080819181C2
:100640009093E7028093E60286E00E94C80247C0CA
:10065000E4E2F0E0808191819093EC028093EB02E0
:1006600085E00E94C8023BC0E4E2F0E08081918115
:100670009093DD028093DC0283E00E94C8022FC0C9
:10068000E4E2F0E0808191819093A5028093A4023E
:1006900082E00E94C80223C0E4E2F0E08081918100
:1006A0009093CC028093CB0280E00E94C80217C0D6
:1006B000E4E2F0E0808191819093DA028093D902A4
:1006C00081E00E94C8020BC0E4E2F0E080819181E9
:1006D0009093A3028093A20287E00E94C8028091B7
:1006E0006302863019F41092630205C080916302A0
:1006F0008F5F809363020F900F90CF91DF910895E9
:100700001F920F920FB60F9211248F939F93DF9336
:10071000CF93CDB7DEB78091E1029091E2020196CE
:100720009093E2028093E1028091D7029091D802E7
:1007300001969093D8028093D702CF91DF919F9139
:100740008F910F900FBE0F901F9018951F920F92D0
:100750000FB60F9211248F939F93DF93CF93CDB752
:10076000DEB78091D3029091D40201969093D40287
:100770008093D3028091AC029091AD020196909348
:10078000AD028093AC02CF91DF919F918F910F903A
:100790000FBE0F901F901895DF93CF93CDB7DEB7A4
:1007A000CF91DF910895DF93CF9300D0CDB7DEB71F
:1007B0009A83898389819A819093630080936200F0
:1007C0000F900F90CF91DF910895DF93CF9300D0DA
:1007D000CDB7DEB78A83F894A2E3B0E0E2E3F0E0BD
:1007E00080818F778C930E94F20D10929B02109261
:1007F0009A021092AB021092AA02109295021092E5
:1008000094021092D1021092D0021092EA02109239
:10081000C802EAE4F0E01082E8E4F0E01082EFE4DD
:10082000F0E010820E94A10E80EF91E00E94D413AC
:1008300085EB91E00E94D4138A81813019F08A817E
:100840008230E9F48BE891E00E94D41389E791E0CB
:100850000E94D4138A81813029F484E791E00E94B8
:10086000D41304C08EE691E00E94D4138DE391E08E
:100870000E94D4138EEF90E00E94D4130FC08A819F
:10088000833061F481EE90E00E94D41381EB90E01C
:100890000E94D4138AE790E00E94D41384E590E08C
:1008A0000E94D41386E30E94D9018AE0898307C09D
:1008B00080E090E80E94AE1189818150898389810E
:1008C0008823B1F780E00E94D9018AE0898307C0BC
:1008D0008FEF9FEF0E94AE118981815089838981BA
:1008E0008823B1F7DFCFDF93CF93CDB7DEB728975B
:1008F0000FB6F894DEBF0FBECDBF8091C602823323
:1009000008F47EC01092C6028091C302882309F0C9
:1009100043C08091EB029091EC0223E08330920778
:1009200040F48091DC029091DD0243E08330940733
:10093000F0F08091C5028F5F8093C5028AE08093BA
:10094000C30210929B0210929A021092AB02109274
:10095000AA0210929502109294021092D102109263
:10096000D00280918D02846080938D0259C2809163
:100970008D028B7F80938D0280919002853628F0C6
:100980001092C5021092900207C08091C502833078
:1009900018F083E00E94E5038091EB029091EC0255
:1009A0008639910598F480919C0290919D02009760
:1009B00069F48091890290918A02009739F08091C0
:1009C000EA02873918F081E00E94E5038091DC0299
:1009D0009091DD028639910598F48091DF02909123
:1009E000E002009769F48091850290918602009759
:1009F00039F08091C802873918F082E00E94E5033F
:100A000080919802882309F4FCC18091C302882355
:100A100009F0F0C18091C502882331F080919002E5
:100A20008F5F8093900202C01092900280918D029D
:100A30008270882309F43FC02091E1023091E202E4
:100A400080918302909184022817390790F01092C8
:100A50008A021092890210929502109294021092CA
:100A60009B0210929A0280918D028D7F80938D025D
:100A700022C02091E1023091E20280919E02909189
:100A80009F0228173907B8F08091890290918A0255
:100A90009695879590938A02809389028091890226
:100AA00090918A028631910530F486E190E090932E
:100AB0008A028093890280918D028170882309F4D3
:100AC0003FC02091D3023091D4028091A80290912E
:100AD000A9022817390790F0109286021092850219
:100AE0001092D1021092D0021092AB021092AA0280
:100AF00080918D028E7F80938D0222C02091D3023F
:100B00003091D4028091D5029091D60228173907EE
:100B1000B8F0809185029091860296958795909382
:100B200086028093850280918502909186028631AB
:100B3000910530F486E190E09093860280938502DF
:100B400090915E0280916002981739F490915F0253
:100B500080916102981709F464C080918902909194
:100B60008A02009731F48091850290918602009765
:100B700041F18091890290918A0290938C02809336
:100B80008B0280918502909186029093A1028093BE
:100B9000A00210928A02109289021092860210928C
:100BA00085021092AB021092AA0210929B02109240
:100BB0009A0210929502109294021092D102109211
:100BC000D002EFE4F0E08081882359F580915E0245
:100BD00090915F02692F0E94960980918B029091FB
:100BE0008C0290938A02809389028091A002909156
:100BF000A102909386028093850280918902909150
:100C00008A0296958795909395028093940280919D
:100C1000850290918602969587959093D102809354
:100C2000D0022091890230918A0280919C02909199
:100C30009D02A901481B590BCA019C838B832091FB
:100C40009402309195028B819C81820F931F909327
:100C5000950280939402809194029091950251E0C4
:100C6000853A950734F084EA91E090939502809359
:100C7000940280919402909195022EEF8C35920708
:100C800034F48CE59EEF90939502809394028091CA
:100C90009C0290919D02009751F48091890290915D
:100CA0008A02009721F4109295021092940280918A
:100CB0009402909195029E838D834D815E81552390
:100CC0002CF48D819E8101969E838D838D819E81E2
:100CD0009595879590939B0280939A0280919A02B2
:100CE00090919B02833D910534F082ED90E09093CA
:100CF0009B0280939A0280919A0290919B02992381
:100D000024F410929B0210929A0220918502309155
:100D100086028091DF029091E002A901481B590BE5
:100D2000CA019A8389832091D0023091D1028981AE
:100D30009A81820F931F9093D1028093D002809169
:100D4000D0029091D10251E0853A950734F084EABF
:100D500091E09093D1028093D0028091D002909143
:100D6000D1022EEF8C35920734F48CE59EEF9093F0
:100D7000D1028093D0028091DF029091E00200972F
:100D800051F48091850290918602009721F410928F
:100D9000D1021092D0028091D0029091D102988716
:100DA0008F834F81588555232CF48F819885019628
:100DB00098878F838F819885959587959093AB02BF
:100DC0008093AA028091AA029091AB02833D910583
:100DD00034F082ED90E09093AB028093AA02809170
:100DE000AA029091AB02992354F41092AB02109294
:100DF000AA0205C08091C30281508093C302109261
:100E0000980290918D028091E502981749F08091A7
:100E10008D028093E502E0916200F09163000995F4
:100E200028960FB6F894DEBF0FBECDBFCF91DF91ED
:100E30000895DF93CF9300D0CDB7DEB789836A835F
:100E40008981893C10F088EC89838A81893C10F083
:100E500088EC8A838981882F90E090938A0280931E
:100E600089028A81882F90E0909386028093850280
:100E70000F900F90CF91DF910895DF93CF9300D023
:100E800000D00F92CDB7DEB789838981809362024B
:100E90008981813019F08981823029F481E090E0E4
:100EA0009D838C8302C01D821C828C8180935E0294
:100EB0008981813019F08981833029F481E090E0C3
:100EC0009B838A8302C01B821A828A8180935F027D
:100ED0000F900F900F900F900F90CF91DF9108958A
:100EE000DF93CF93CDB7DEB72A970FB6F894DEBF66
:100EF0000FBECDBF9C838B837E836D831A868B81CF
:100F00009C81992314F481E08A878A8580935E020C
:100F100019868D819E81992314F481E089878985C2
:100F200080935F028B819C81181619061CF48B81BB
:100F3000888703C08B818195888788858A838B8188
:100F40009C81181619061CF48D818F8303C08D8136
:100F500081958F838F8189838A8169810E94190796
:100F60002A960FB6F894DEBF0FBECDBFCF91DF91AA
:100F70000895DF93CF9300D0CDB7DEB780918D0277
:100F80008170882351F480918D028270882329F426
:100F900081E090E09A83898302C01A821982898154
:100FA0000F900F90CF91DF910895DF93CF93CDB73E
:100FB000DEB710928A021092890210928602109275
:100FC000850210929502109294021092D102109212
:100FD000D00280918D028E7F80938D0280918D0250
:100FE0008D7F80938D0280918D028093E502E09148
:100FF0006200F09163000995CF91DF910895DF932E
:10100000CF9300D000D00F92CDB7DEB789836A832B
:101010005C834B832D8380918D02816080938D0250
:1010200080918D02826080938D021092D602109280
:10103000D50210929F0210929E0289818731D0F0D2
:101040008981282F30E086EF9FEF821B930B880F5A
:10105000991F9C018B819C81820F931F9093D602D4
:101060008093D5028091D5029091D60290939F02F1
:1010700080939E028B819C8102979093A90280931A
:10108000A8028091A8029091A90290938402809373
:1010900083028B819C818832910500F588E290E083
:1010A0009C838B8384E190E09093A9028093A802B3
:1010B0008091A8029091A902909384028093830268
:1010C0008AE090E09093D6028093D5028091D50279
:1010D0009091D60290939F0280939E028B819C8177
:1010E00021E080399207E0F489818932C8F088E2F2
:1010F00089838B819C819C01369527953695279510
:101100008B819C81821B930B9093D6028093D50296
:101110008091D5029091D60290939F0280939E0277
:101120001092E2021092E1021092D4021092D302C5
:10113000898169810E9419078A810E943D078B81FC
:101140009C819093B1028093B0028B819C8190939B
:1011500092028093910280918D028093E5028091AA
:101160008D028093E502E0916200F09163000995A1
:101170008D81882339F002C00E94F7110E94B907BF
:101180008823D1F30F900F900F900F900F90CF9175
:10119000DF910895DF93CF93CDB7DEB727970FB6D2
:1011A000F894DEBF0FBECDBF8B836C835E834D830F
:1011B0002F8380918D02816080938D0280918D02BA
:1011C000826080938D028D819E81CC01A0E0B0E091
:1011D00020EB32E040E050E0BC01CD010E94AF26A0
:1011E000DC01CB0124E630E040E050E0BC01CD0161
:1011F0000E94E226DA01C9019A83898389819A8152
:10120000845690409093D6028093D50289819A812A
:101210008456904090939F0280939E0289819A8188
:101220009093A9028093A80289819A819093840265
:101230008093830289819A8188329105E0F488E263
:1012400090E09A83898384E190E09093A90280934F
:10125000A80284E190E090938402809383028AE064
:1012600090E09093D6028093D5028AE090E090932C
:101270009F0280939E028B816B810E9419078C8153
:101280000E943D071092E2021092E1021092D402F5
:101290001092D30289819A819093B1028093B00217
:1012A00089819A81909392028093910280918D021C
:1012B0008093E502E0916200F091630009958F81CF
:1012C000882339F002C00E94F7110E94B9078823D1
:1012D000D1F327960FB6F894DEBF0FBECDBFCF91E6
:1012E000DF910895DF93CF9300D0CDB7DEB7898328
:1012F0006A838981833D10F082ED89838A81833DF1
:1013000010F082ED8A838A81882F90E09093AB025F
:101310008093AA028981882F90E090939B0280930A
:101320009A020F900F90CF91DF910895DF93CF93A2
:1013300000D0CDB7DEB789836A838981809360024C
:101340008A8180936102898180935E028A81809381
:101350005F028981882341F0A5E3B0E0E5E3F0E096
:10136000808184608C9307C0A5E3B0E0E5E3F0E002
:1013700080818B7F8C938A81882341F0A5E3B0E044
:10138000E5E3F0E0808188608C9307C0A5E3B0E0DE
:10139000E5E3F0E08081877F8C930F900F90CF91F1
:1013A000DF910895DF93CF9300D0CDB7DEB7898367
:1013B0006A8307C0A9E5B0E0E9E5F0E080818068D4
:1013C0008C9380918F028823A9F78981882F90E0E0
:1013D0008F7390709C01002436952795079436955D
:1013E00027950794322F202D8A81882F90E08F73C4
:1013F0009070822B932B90639093AF028093AE02F8
:1014000080918E02806480938E020F900F90CF9116
:10141000DF9108951F920F920FB60F9211248F93B0
:101420009F93AF93BF93EF93FF93DF93CF93CDB78A
:10143000DEB780916400823008F065C0809164025C
:101440008823D9F1809164028C33C8F48091C90259
:101450009091CA0280709074009749F0A2E3B0E0C6
:10146000E2E3F0E0908180E889278C9320C0A2E33A
:10147000B0E0E2E3F0E080818F778C9318C0809138
:10148000C9029091CA0280709074009741F0A2E363
:10149000B0E0E2E3F0E080818F778C9308C0A2E3B4
:1014A000B0E0E2E3F0E0908180E889278C938091BE
:1014B000640281508093640254C080918F0288231B
:1014C000D1F0A2E3B0E0E2E3F0E080818F778C938B
:1014D0008091C9029091CA02880F991F9093CA0205
:1014E0008093C90288E78093640280918F028150C3
:1014F00080938F0236C0A2E3B0E0E2E3F0E08081A7
:101500008F778C932EC0809193028823E1F0809195
:101510008E028170882349F4A8E3B0E0E8E3F0E0AC
:10152000908180E489278C9308C0A5E3B0E0E5E3CF
:10153000F0E0908180E889278C938091930281501C
:10154000809393020EC0A8E3B0E0E8E3F0E080816E
:1015500080648C93A5E3B0E0E5E3F0E080818068EF
:101560008C93CF91DF91FF91EF91BF91AF919F91BC
:101570008F910F900FBE0F901F9018951F920F9292
:101580000FB60F9211248F939F93EF93FF93DF93E6
:10159000CF930F92CDB7DEB780916400833021F0F6
:1015A000809164008630C1F480918E02807188231E
:1015B00099F480918E028072882371F0E6E3F0E066
:1015C0008081882F90E084709070009729F480913A
:1015D000E4028F5F8093E402E6E3F0E08081809193
:1015E0008E028D7F80938E020F90CF91DF91FF91BD
:1015F000EF919F918F910F900FBE0F901F901895B4
:10160000DF93CF9300D0CDB7DEB79A8389830F9055
:101610000F90CF91DF910895DF93CF9300D0CDB796
:10162000DEB79A83898389819A819093660080933B
:1016300065000F900F90CF91DF910895DF93CF93C6
:10164000CDB7DEB7CF91DF910895DF93CF9300D070
:10165000CDB7DEB79A83898389819A819093680098
:10166000809367000F900F90CF91DF910895DF93E3
:10167000CF93CDB7DEB72E970FB6F894DEBF0FBE6F
:10168000CDBF8091A6029091A7028230910508F407
:101690004DC280918E028071882309F024C280910E
:1016A0006400282F30E03E872D878D859E8582300F
:1016B000910509F4B9C02D853E852330310554F4D8
:1016C0008D859E850097C9F02D853E852130310599
:1016D00089F10FC28D859E858530910509F454C12D
:1016E0002D853E852630310509F483C18D859E8583
:1016F0008330910509F4CDC0FCC1A9E5B0E0E9E56E
:10170000F0E080818F778C93A2E3B0E0E2E3F0E039
:1017100080818F778C93A8E3B0E0E8E3F0E08081EC
:1017200080648C93A5E3B0E0E5E3F0E0808180681D
:101730008C93DFC180918F02882309F04DC0809186
:101740008E0280748823C1F08091AE029091AF0226
:101750009093CA028093C9028EE080938F02809199
:101760008E028F7B80938E02A9E5B0E0E9E5F0E080
:10177000808180688C931CC0A9E5B0E0E9E5F0E0C9
:1017800080818F778C93A2E3B0E0E2E3F0E0808188
:101790008F778C93A8E3B0E0E8E3F0E08081806489
:1017A0008C93A5E3B0E0E5E3F0E0808180688C9362
:1017B000909169029C871B862C85243110F031E0C2
:1017C0003B878C858F5F809369028B85882359F0D6
:1017D00082E08093640007C0A9E5B0E0E9E5F0E0AD
:1017E000808180688C9380918E028870882309F4B0
:1017F00080C1E0916500F09166008091E8029091CF
:10180000E90209958091E8029091E902909397028C
:10181000809396021092E9021092E80280918E0263
:10182000877F80938E0265C1A9E5B0E0E9E5F0E02D
:1018300080818F778C93A2E3B0E0E2E3F0E08081D7
:101840008F778C93A8E3B0E0E8E3F0E080818064D8
:101850008C93A5E3B0E0E5E3F0E0808180688C93B1
:10186000109293021092E4021092680210926702A2
:1018700080918E028E7F80938E0280918E02806294
:1018800080938E0283E08093690283E080936400FA
:1018900030C1809193028823E1F4909169029A8784
:1018A00019862A85233010F031E039878A858F5FC9
:1018B000809369028985882361F0A9E5B0E0E9E5B4
:1018C000F0E0808180688C9388E28093930210928C
:1018D00069028091C402882369F08091E402823019
:1018E00048F01092E40281E08093C40285E0809386
:1018F0006400FFC08091E402863048F01092E40258
:1019000081E08093C40285E080936400F2C020915E
:1019100067023091680238872F831E828F819885F5
:101920008E30910510F091E09E838F81988501960D
:1019300090936802809367022E81222309F4D9C014
:101940001092C40285E080936400A9E5B0E0E9E567
:10195000F0E080818F778C93A2E3B0E0E2E3F0E0E7
:1019600080818F778C93A8E3B0E0E8E3F0E080819A
:1019700080648C93A5E3B0E0E5E3F0E080818068CB
:101980008C9310929302B5C0A9E5B0E0E9E5F0E0D0
:1019900080818F778C93A2E3B0E0E2E3F0E0808176
:1019A0008F778C93A8E3B0E0E8E3F0E08081806477
:1019B0008C93A5E3B0E0E5E3F0E0808180688C9350
:1019C000109293021092E402109268021092670241
:1019D00080918E02816080938E0280918E0280625F
:1019E00080938E0283E08093690286E08093640096
:1019F00080C0809193028823E1F4309169023D8395
:101A00001C828D81833010F091E09C838D818F5FEB
:101A1000809369022C81222361F0A9E5B0E0E9E519
:101A2000F0E0808180688C9388E28093930210922A
:101A300069028091CE02882369F08091E4028230AD
:101A400048F01092E40281E08093CE0281E080931E
:101A500064004FC08091E402863048F01092E402A6
:101A600081E08093CE0281E08093640042C0809147
:101A70006702909168029B838A8319822A813B8145
:101A80002E30310510F031E039838A819B81019637
:101A900090936802809367028981882351F11092A4
:101AA000CE0281E080936400A9E5B0E0E9E5F0E0D2
:101AB00080818F778C93A2E3B0E0E2E3F0E0808155
:101AC0008F778C93A8E3B0E0E8E3F0E08081806456
:101AD0008C93A5E3B0E0E5E3F0E0808180688C932F
:101AE0001092930206C01092680210926702109240
:101AF0006902909166028091C402981731F4909126
:101B000065028091CE02981769F08091C40280939B
:101B100066028091CE0280936502E0916700F091A9
:101B2000680009951092A7021092A6022E960FB691
:101B3000F894DEBF0FBECDBFCF91DF910895DF9344
:101B4000CF93CDB7DEB710926400A9E5B0E0E9E528
:101B5000F0E080818F778C93A2E3B0E0E2E3F0E0E5
:101B600080818F778C93A8E3B0E0E8E3F0E0808198
:101B700080648C93A5E3B0E0E5E3F0E080818068C9
:101B80008C931092CE021092C402CF91DF910895EF
:101B9000DF93CF93CDB7DEB7A9E5B0E0E9E5F0E09C
:101BA00080818F778C93A2E3B0E0E2E3F0E0808164
:101BB0008F778C93A8E3B0E0E8E3F0E08081806465
:101BC0008C93A5E3B0E0E5E3F0E0808180688C933E
:101BD0001092CE021092C40281E080936400CF91F3
:101BE000DF910895DF93CF93CDB7DEB7A1E3B0E0E7
:101BF000E1E3F0E080818F7B8C93A2E3B0E0E2E34D
:101C0000F0E080818F7B8C93A7E3B0E0E7E3F0E026
:101C10008081877F8C93A8E3B0E0E8E3F0E08081E7
:101C2000877F8C93A8E3B0E0E8E3F0E080818F7BCE
:101C30008C93A5E3B0E0E5E3F0E080818F778C93AF
:101C4000CF91DF910895DF93CF93CDB7DEB7A1E3B6
:101C5000B0E0E1E3F0E0808180648C93A2E3B0E047
:101C6000E2E3F0E0808180648C93A7E3B0E0E7E3F7
:101C7000F0E08081877F8C93A8E3B0E0E8E3F0E0B8
:101C80008081877F8C93CF91DF910895DF93CF93ED
:101C9000CDB7DEB7A1E3B0E0E1E3F0E080818F7B78
:101CA0008C93A2E3B0E0E2E3F0E080818F7B8C9341
:101CB000A7E3B0E0E7E3F0E0808188608C93A8E3DD
:101CC000B0E0E8E3F0E0808188608C93CF91DF9111
:101CD0000895DF93CF93CDB7DEB7A1E3B0E0E1E3A2
:101CE000F0E0808180648C93A2E3B0E0E2E3F0E076
:101CF000808180648C93A7E3B0E0E7E3F0E080812B
:101D000088608C93A8E3B0E0E8E3F0E0808188602D
:101D10008C93CF91DF910895DF93CF93CDB7DEB74A
:101D2000A8E3B0E0E8E3F0E0808180618C938091EB
:101D30009902843018F483E080939902CF91DF9167
:101D40000895DF93CF9300D0CDB7DEB7A8E3B0E01E
:101D5000E8E3F0E080818F7E8C938091990284305B
:101D600090F480919902882321F48091C7028823FE
:101D700029F081E090E09A83898302C01A82198257
:101D80008981809399020F900F90CF91DF910895F0
:101D90001F920F920FB60F9211242F933F935F93D0
:101DA0006F937F938F939F93AF93BF93EF93FF9323
:101DB000DF93CF93CDB7DEB72B97DEBFCDBF80913A
:101DC00087029091880201969093880280938702FF
:101DD0008091DB028F5F8093DB022091DE022B87F4
:101DE0001A868B85893010F091E09A878B858F5FFA
:101DF0008093DE022A85222309F4ECC18091B2028D
:101E0000882F90E081709070882349F08091B30210
:101E10009091B40201969093B4028093B3028091A2
:101E2000B202882F90E082709070009749F0809104
:101E3000B5029091B60201969093B6028093B502D6
:101E40008091B202882F90E084709070009749F0E2
:101E50008091B7029091B80201969093B802809356
:101E6000B7028091B202882F90E08870907000973E
:101E700049F08091B9029091BA0201969093BA020A
:101E80008093B9028091B202882F90E080719070A7
:101E9000009749F08091BB029091BC02019690930B
:101EA000BC028093BB028091B202882F90E08072C6
:101EB0009070009749F08091BD029091BE0201960A
:101EC0009093BE028093BD028091B202882F90E071
:101ED00080749070009749F08091BF029091C00289
:101EE00001969093C0028093BF028091B202882332
:101EF0004CF48091C1029091C20201969093C2026B
:101F00008093C1028091CF02898718869985993C78
:101F100010F021E0288789858F5F8093CF02888524
:101F20008823E9F08091AC029091AD029093E00299
:101F30008093DF028091D7029091D80290939D0206
:101F400080939C021092AD021092AC021092D802C3
:101F50001092D70281E0809398021092CF02809174
:101F60009902833008F0A3C080919902823009F071
:101F70006BC08091C702882309F04BC080916E022C
:101F800090916F029F838E8328EC30E08E819F8139
:101F9000B9010E94CE261D82009711F491E09D8325
:101FA0008E819F81019690936F0280936E022D81A6
:101FB000222309F47CC080916E0290916F022FE081
:101FC000813A9207A8F0A7E3B0E0E7E3F0E0808170
:101FD0008D7F8C93A8E3B0E0E8E3F0E080818D7F13
:101FE0008C931092990210926F0210926E025FC051
:101FF000A7E3B0E0E7E3F0E0908182E089278C93EB
:10200000A8E3B0E0E8E3F0E0908182E089278C93D8
:102010004EC08091C7028071882371F4A7E3B0E0BD
:10202000E7E3F0E080818D7F8C93A8E3B0E0E8E304
:10203000F0E080818D7F8C9310926F0210926E027F
:1020400081E08093990233C080916E0290916F027B
:102050002EE2813E920710F1809199028130B1F415
:10206000109299028091C7028071882391F4A7E3AE
:10207000B0E0E7E3F0E080818D7F8C93A8E3B0E0EF
:10208000E8E3F0E080818D7F8C9303C082E0809351
:10209000990210926F0210926E0209C080916E0236
:1020A00090916F02019690936F0280936E028091DF
:1020B000A6029091A7028330910548F48091A60270
:1020C0009091A70201969093A7028093A602809117
:1020D000C602873328F48091C6028F5F8093C602C0
:1020E0008091D202843328F48091D2028F5F809352
:1020F000D2028091CD028C831B829C81933010F0A0
:1021000021E02B838C818F5F8093CD028B8188238C
:1021100009F45EC08091C802282F30E08091AA02A5
:102120009091AB0228173907D9F08091C802282F67
:1021300030E08091AA029091AB022817390734F45D
:102140008091C8028F5F8093C80205C08091C80249
:1021500081508093C802EAE4F0E08091C802808355
:102160008091EA02282F30E080919A0290919B02A0
:1021700028173907D9F08091EA02282F30E08091A2
:102180009A0290919B022817390734F48091EA0251
:102190008F5F8093EA0205C08091EA0281508093AC
:1021A000EA02E8E4F0E08091EA0280838091EA02AA
:1021B000882321F48091C802882329F0EFE4F0E01D
:1021C00082EA808303C0EFE4F0E010821092CD0237
:1021D0001092DE0280918E028870882309F077C009
:1021E00080916A0290916B029A83898380916C023C
:1021F0008F5F80936C0280916C028631F0F0898150
:102200009A8180709074009789F489819A81807096
:102210009072009759F089819A819093E902809396
:10222000E80280918E02886080938E0280918E02F7
:102230008F7E80938E021A821982E6E3F0E090810D
:1022400080916D028927882F90E0847090700097AC
:10225000C1F180916D02809580936D0280916C0236
:10226000873038F480918E028F7E80938E021A829E
:10227000198289819A81009721F080916C028F30B8
:1022800000F180918E02806180938E0289819A8113
:1022900080709074009731F489819A81880F991F1A
:1022A0009A83898380916D02882F90E0847090706A
:1022B000009729F489819A8181609A838983109299
:1022C0006C0289819A8190936B0280936A022B96AB
:1022D000DEBFCDBFCF91DF91FF91EF91BF91AF9165
:1022E0009F918F917F916F915F913F912F910F906F
:1022F0000FBE0F901F901895DF93CF930F92CDB71D
:10230000DEB789831092DB029091DB0289819817F6
:10231000D8F30F90CF91DF910895DF93CF9300D042
:102320000F92CDB7DEB79A83898303C08AE00E94FB
:102330007C111B8289819A81009711F081E08B8347
:1023400089819A8101979A8389838B81882371F788
:102350000F900F900F90CF91DF910895DF93CF935F
:1023600000D00F92CDB7DEB79A83898301C00000F9
:102370001B8289819A81009711F081E08B8389818A
:102380009A8101979A8389838B81882381F70F90A3
:102390000F900F90CF91DF910895DF93CF93CDB73A
:1023A000DEB7AAE3B0E0EAE3F0E0808180618C93DD
:1023B000ABE3B0E0EBE3F0E0808180618C93CF9100
:1023C000DF910895DF93CF93CDB7DEB7ABE3B0E0F5
:1023D000EBE3F0E080818F7E8C93AAE3B0E0EAE348
:1023E000F0E080818F7E8C93CF91DF910895DF9311
:1023F000CF93CDB7DEB70E94DB020E94370B0E945D
:1024000063020E947304CF91DF910895DF93CF930D
:102410000F92CDB7DEB7EBE3F0E01082E8E3F0E037
:102420001082E5E3F0E01082E2E3F0E081E08083F7
:10243000EAE3F0E01082E7E3F0E088E58083E4E39C
:10244000F0E08CE88083E1E3F0E082EF8083F894B1
:10245000A8E3B0E0E8E3F0E080818F7D8C93A7E310
:10246000B0E0E7E3F0E0808180628C938C91A2E39E
:10247000B0E0E2E3F0E080818F778C930E94F20D70
:10248000E0E4F0E01082E9E2F0E08CE08083EBE24F
:10249000F0E01082E0E4F0E086E88083EAE2F0E039
:1024A00088E98083E7E2F0E01082E6E2F0E086E18E
:1024B0008083E0E5F0E01082E5E5F0E085E08083F0
:1024C000EBE5F0E080EE8083E4E5F0E01082E3E508
:1024D000F0E08AE08083ECE5F0E083E68083EFE4DF
:1024E000F0E082EA8083EEE4F0E081E18083E6E4DC
:1024F000F0E082ED90E091838083EAE4F0E01082E6
:10250000E8E4F0E0108280E060E00E949609E5E4F3
:10251000F0E089E08083E3E4F0E08EE68083E9E5A3
:10252000F0E082E0808380918E02816080938E0251
:1025300081E08093640078940F90CF91DF910895AB
:10254000DF93CF930F92CDB7DEB78983F894E2E2A1
:10255000F0E089818083E3E2F0E08FEF8083E6E5BD
:10256000F0E084E080837894E6E5F0E085EC808319
:102570000F90CF91DF9108951F920F920FB60F9297
:1025800011242F933F938F939F93AF93BF93EF9318
:10259000FF93DF93CF9300D0CDB7DEB7E1E2F0E059
:1025A0008081282F30E03A83298389819A8180397C
:1025B000910509F49CC029813A81213931059CF4A7
:1025C00089819A818037910509F489C029813A81EE
:1025D0002038310509F45AC089819A8180369105E5
:1025E00009F449C098C029813A81283A3105B9F0E7
:1025F00089819A81893A91053CF429813A81203A6E
:10260000310509F47EC087C089819A81883B910594
:1026100061F029813A81203C3105F9F07CC084E0E9
:102620008093740281E080937202809174028430FE
:1026300079F4A3E2B0E020917502822F90E0FC01D2
:10264000E250FD4F80818C93822F8F5F80937502C3
:10265000E6E5F0E085EC808362C01092740210928F
:1026600075021092720281E080937002E6E5F0E05C
:1026700085EC808354C081E08093730282E0809374
:102680007402E6E5F0E085EC808349C08091740235
:10269000823069F4E3E2F0E08081809375028091FA
:1026A00075028093710283E08093740213C080915D
:1026B0007402833079F430917502832F90E0E3E265
:1026C000F0E02081FC01E251FD4F2083832F8F5FDA
:1026D00080937502E6E5F0E085EC808320C081E020
:1026E00080937402E6E5F0E085EC808318C0E3E2B5
:1026F000F0E080818093ED02E6E5F0E085EC8083F8
:102700000EC085E080937402E6E5F0E085EC8083FE
:102710001092730204C0E6E5F0E084E880830F9035
:102720000F90CF91DF91FF91EF91BF91AF919F916A
:102730008F913F912F910F900FBE0F901F90189582
:10274000DF93CF930F92CDB7DEB78983EBE2F0E052
:102750008081882F90E0807290700097B9F3ECE24E
:10276000F0E0898180830F90CF91DF910895DF930E
:10277000CF9300D0CDB7DEB79A8389830BC0E981B0
:10278000FA81208189819A8101969A838983822F97
:102790000E94A013E981FA818081882381F70F903C
:1027A0000F90CF91DF910895DF93CF9300D000D0A9
:1027B00000D0CDB7DEB79E838D8303C08C810E948D
:1027C000A0138D819E819B838A838D819E8101963A
:1027D0009E838D83EA81FB818491898389818C83A7
:1027E0008C81882359F726960FB6F894DEBF0FBE6A
:1027F000CDBFCF91DF910895DF93CF9300D000D06C
:10280000CDB7DEB79A8389836B834C838C81282F65
:1028100030E089819A81820F931F9A8389830EC049
:10282000E981FA81208189819A8101969A8389833D
:10283000822F0E94A0138B8181508B83E981FA81C2
:102840008081882319F08B81882351F70F900F9096
:102850000F900F90CF91DF910895DF93CF93CDB775
:10286000DEB764970FB6F894DEBF0FBECDBF9B8B6B
:102870008A8B6C8B8C89482F50E08A899B899E01BA
:102880002F5F3F4FB9010E94E128CE0101960E94BF
:10289000B71364960FB6F894DEBF0FBECDBFCF91CD
:1028A000DF910895DF93CF93CDB7DEB766970FB66C
:1028B000F894DEBF0FBECDBF9C8B8B8B6D8B4E8B88
:1028C0008D89482F50E08B899C899E012E5F3F4F58
:1028D000B9010E94E128CE0102960E94D728982FC4
:1028E0008E89891B8983898118167CF406C08981A9
:1028F0008150898380E30E94A01389811816BCF35C
:10290000CE0102960E94B71309C089818195282FB4
:10291000CE0102966E89422F0E94FC1366960FB676
:10292000F894DEBF0FBECDBFCF91DF9108951F9207
:102930000F920FB60F9211242F933F938F939F9373
:10294000EF93FF93DF93CF93CDB7DEB780917902FA
:1029500090917802891B8032E8F490917702292FB8
:1029600030E0ECE2F0E08081F901E15DFC4F808332
:10297000892F8F5F80937702809179028F5F809398
:10298000790280917702813210F0109277021092D2
:102990002E0308C0ECE2F0E0808180937A0281E0AF
:1029A00080932E03CF91DF91FF91EF919F918F91B3
:1029B0003F912F910F900FBE0F901F901895DF93AE
:1029C000CF930F92CDB7DEB710922E03909179027C
:1029D000809178029817C9F0809178028F5F809378
:1029E000780280917602813210F010927602209166
:1029F0007602822F90E0FC01E15DFC4F80818983AB
:102A0000822F8F5F8093760201C0198289810F9097
:102A1000CF91DF910895DF93CF9300D000D0CDB751
:102A2000DEB79B838A836C83198210922E0323C0A6
:102A3000809178028F5F809378028981282F30E01F
:102A40008A819B81DC01A20FB31F20917602822F25
:102A500090E0FC01E15DFC4F80818C9389818F5F68
:102A60008983822F8F5F80937602809176028132F4
:102A700010F0109276029091790280917802981766
:102A800021F099818C81981798F289810F900F908D
:102A90000F900F90CF91DF910895DF93CF93CDB733
:102AA000DEB79091790280917802292F281B822F1E
:102AB000CF91DF910895DF93CF93CDB7DEB7AAE230
:102AC000B0E0EAE2F0E080818F778C93ECE2F0E016
:102AD000808180937B02109276021092770210928E
:102AE00078021092790210922E03AAE2B0E0EAE294
:102AF000F0E0808180688C93CF91DF910895DF931F
:102B0000CF93CDB7DEB781E090E0909369038093D7
:102B10006803109255031092540382E090E0909362
:102B200057038093560310925B0310925A0310923E
:102B30005F0310925E0310925D0310925C0381E0CC
:102B400090E0909367038093660310926103109264
:102B50006003109263031092620310926503109257
:102B6000640310925903109258030E9406120E94A7
:102B70008C0E0E94C0150E946D160E94F711F9CFAD
:102B8000DF93CF9300D0CDB7DEB7809168039091EB
:102B900069039A83898389819A818130910569F0DB
:102BA00089819A818130910508F492C089819A8146
:102BB0008230910509F466C08BC0809166039091C4
:102BC0006703009761F08CE390E090935B03809340
:102BD0005A0381E090E090935F0380935E030E942C
:102BE000E801882329F189E690E00E94B7130E944A
:102BF000D50710925F0310925E0381E090E09093FE
:102C00005D0380935C0383E090E09093570380938F
:102C100056038091E1029091E202909361038093C8
:102C2000600382E090E0909369038093680350C052
:102C30000E941902882309F44BC08AE790E00E94A1
:102C4000B7130E94D50710925F0310925E0381E0D4
:102C500090E090935D0380935C0382E090E090931A
:102C60005703809356038091E1029091E202909382
:102C700061038093600382E090E090936903809306
:102C8000680326C08CE890E00E94B7138091660329
:102C9000909167030097E1F08BE990E00E94B713F1
:102CA00010925D0310925C0381E090E090935F03CB
:102CB00080935E0381E090E09093690380936803C2
:102CC0001092E2021092E1021092D4021092D3020A
:102CD0000F900F90CF91DF910895DF93CF9300D0A5
:102CE000CDB7DEB780915E0390915F03009761F0EE
:102CF00080915A0390915B0320915A0330915B03BA
:102D0000B9010E947007C6C080915C0390915D0379
:102D1000009709F4BFC080917C0290917D020097DA
:102D2000D1F58091640390916503019690936503BA
:102D3000809364030E945917009721F01092630357
:102D4000109262038CEA90E00E94B71380917C029B
:102D500090917D02AA2797FDA095BA2FBC01CD01C5
:102D60000E946124DC01CB01BC01CD0126EA3BE9D4
:102D700044EC5CE30E94BB22DC01CB01BC01CD0131
:102D80000E94BF24DC01CB016AE00E942D148AE07E
:102D90000E94A01362C08091600390916103209112
:102DA0005803309159034091560350915703B9018C
:102DB0000E9462209A8389838091640390916503C5
:102DC00001969093650380936403E981FA8182817F
:102DD0009381009761F48091800290918102009725
:102DE00031F481E090E090938102809380028091A1
:102DF000800290918102009761F10E9489180097EA
:102E000041F189EB90E00E94B71380917E0290918E
:102E10007F02AA2797FDA095BA2FBC01CD010E9481
:102E20006124DC01CB01BC01CD0126EA3BE944EC85
:102E30005CE30E94BB22DC01CB01BC01CD010E94FE
:102E4000BF24DC01CB016AE00E942D148AE00E94BD
:102E5000A01389819A810E94792887EC90E00E94D2
:102E6000B71380915A0390915B03282F80915603EA
:102E700090915703982F822F692F40E750E021E06F
:102E80000E94CA088091560390915703909359036A
:102E9000809358030E94B907882331F081E090E0C5
:102EA00090936703809366030F900F90CF91DF910B
:102EB00008950F931F93DF93CF93CDB7DEB72A9773
:102EC0000FB6F894DEBF0FBECDBF8091580390912E
:102ED0005903009709F40EC1009162031091630336
:102EE00080916003909161032091580330915903C0
:102EF0004091560350915703B9010E946220FC0192
:102F00002081318142815381C801880F991F880F28
:102F1000991FFC01E659FC4F208331834283538380
:102F20008091620390916303019690936303809371
:102F300062038091620390916303823091050CF4E7
:102F4000D9C080916203909163030297880F991F03
:102F5000880F991F86599C4F98878F8380916203B1
:102F6000909163039C0181E090E0821B930B880F9A
:102F7000991F880F991F909581959F4F86599C4F57
:102F80009E838D838F8198852D813E81B9010E941A
:102F90009D20009761F08F8198852D813E81B90138
:102FA0000E94FC1C81E090E09A878987A5C08091EF
:102FB000620390916303833091050CF49BC0809170
:102FC0006203909163030397880F991F880F991FDD
:102FD00086599C4F98878F838091620390916303F9
:102FE0000297880F991F880F991F86599C4F9E83BF
:102FF0008D8380916203909163039C0181E090E056
:10300000821B930B880F991F880F991F90958195AC
:103010009F4F86599C4F9C838B838F8198852D81F0
:103020003E814B815C81B9010E94C620009771F0FE
:103030008F8198852D813E814B815C81B9010E94F1
:10304000021E81E090E09A87898756C080916203D2
:1030500090916303843091050CF44CC0809162031D
:10306000909163030497880F991F880F991F8659C1
:103070009C4F98878F83809162039091630303979D
:10308000880F991F880F991F86599C4F9E838D83A7
:1030900080916203909163030297880F991F880FB4
:1030A000991F86599C4F9C838B83809162039091DA
:1030B00063039C0181E090E0821B930B880F991FB2
:1030C000880F991F909581959F4F86599C4F9A83A1
:1030D00089838F8198852D813E814B815C81E98137
:1030E000FA81B9019F010E94471F81E090E09A8711
:1030F000898702C01A86198689859A852A960FB60D
:10310000F894DEBF0FBECDBFCF91DF911F910F911D
:1031100008956F927F928F929F92AF92BF92CF92BB
:10312000DF92EF92FF920F931F93DF93CF93CDB770
:10313000DEB72A970FB6F894DEBF0FBECDBF009161
:103140006203109163038091600390916103209169
:103150005803309159034091560350915703B901D8
:103160000E946220FC012081318142815381C8018B
:10317000880F991F880F991FFC01E654FC4F20838C
:10318000318342835383809162039091630301965C
:10319000909363038093620385ED90E00E94B713E0
:1031A00010927F0210927E020E94551C009709F433
:1031B00033C283EE90E00E94B7130E94891C988767
:1031C0008F838F81988599230CF423C285EF90E03B
:1031D0000E94B7138F8198850E94DD1B9E838D838B
:1031E0008EE091E00E94B7138F8198856AE00E947B
:1031F0002D148AE00E94A01389E291E00E94B71387
:103200008D819E816AE00E942D148AE00E94A013A5
:103210008F8198859C838B83CDC1209164033091ED
:1032200065038091620390916303281B390B8B81A6
:103230009C81820F931F81709070882309F4DBC0FA
:103240000E94071C009709F468C080917E0290914B
:103250007F02AA2797FDA095BA2FBC01CD010E943D
:1032600061247B018C018B819C81880F991F880FC1
:10327000991FFC01E654FC4F80819181AA2797FD9C
:10328000A095BA2FBC01CD010E9461245B016C01A5
:1032900020915003309151034091520350915303B8
:1032A000CA01B9010E94BB22DC01CB01BC01CD01E6
:1032B00020E030E040E85FE30E948E22DC01CB0199
:1032C000BC01CD010E943F279B01AC0160E070E092
:1032D00080E89FE30E94B523DC01CB019C01AD0196
:1032E000C601B5010E94BB22DC01CB019C01AD01EE
:1032F000C801B7010E948E22DC01CB01BC01CD01C7
:103300000E94BF24DC01CB0190937F0280937E0258
:1033100083E491E00E94B71348C180917E029091AE
:103320007F02AA2797FDA095BA2FBC01CD010E946C
:1033300061245B016C018B819C81880F991F880F30
:10334000991FFC01E654FC4F80819181AA2797FDCB
:10335000A095BA2FBC01CD010E9461243B014C0114
:10336000E0905003F09051030091520310915303E9
:1033700020915003309151034091520350915303D7
:10338000CA01B9010E94BB22DC01CB01BC01CD0105
:1033900020E030E040E85FE30E948E22DC01CB01B8
:1033A000BC01CD010E943F279B01AC01C801B701C0
:1033B0000E94B523DC01CB019C01AD01C401B30126
:1033C0000E94BB22DC01CB019C01AD01C601B5010D
:1033D0000E948E22DC01CB01BC01CD010E94BF24E2
:1033E000DC01CB0190937F0280937E0289E491E01F
:1033F0000E94B713DAC00E94071C009709F068C04A
:1034000080917E0290917F02AA2797FDA095BA2F06
:10341000BC01CD010E9461247B018C018B819C81C8
:10342000880F991F880F991FFC01E654FC4F80817B
:103430009181AA2797FDA095BA2FBC01CD010E94CA
:1034400061245B016C012091500330915103409144
:10345000520350915303CA01B9010E94BB22DC01FF
:10346000CB01BC01CD0120E030E040E85FE30E94E9
:103470008E22DC01CB01BC01CD010E943F279B01C4
:10348000AC0160E070E080E89FE30E94B523DC01BE
:10349000CB019C01AD01C601B5010E94BB22DC013C
:1034A000CB019C01AD01C801B7010E948E22DC0155
:1034B000CB01BC01CD010E94BF24DC01CB01909364
:1034C0007F0280937E0283E491E00E94B7136DC077
:1034D00080917E0290917F02AA2797FDA095BA2F36
:1034E000BC01CD010E9461245B016C018B819C8138
:1034F000880F991F880F991FFC01E654FC4F8081AB
:103500009181AA2797FDA095BA2FBC01CD010E94F9
:1035100061243B014C01E0905003F0905103009175
:103520005203109153032091500330915103409165
:10353000520350915303CA01B9010E94BB22DC011E
:10354000CB01BC01CD0120E030E040E85FE30E9408
:103550008E22DC01CB01BC01CD010E943F279B01E3
:10356000AC01C801B7010E94B523DC01CB019C016D
:10357000AD01C401B3010E94BB22DC01CB019C015F
:10358000AD01C601B5010E948E22DC01CB01BC0158
:10359000CD010E94BF24DC01CB0190937F02809378
:1035A0007E0289E491E00E94B7138B819C81019691
:1035B0009C838B832B813C818D819E818217930715
:1035C0000CF02BCE1A82198216C089819A81880F3D
:1035D000991F880F991FFC01E654FC4F808191814F
:1035E0006AE00E942D148AE00E94A01389819A81CA
:1035F00001969A83898320916203309163038981C4
:103600009A81821793070CF381E090E09A8789876B
:10361000BDC01A861986BAC0809162039091630377
:103620008330910509F0B0C00E94201C009709F476
:10363000ABC080916203909163030297880F991F3A
:10364000880F991FFC01E654FC4F80819181AA27C5
:1036500097FDA095BA2FBC01CD010E9461247B018A
:103660008C012091500330915103409152035091AD
:103670005303CA01B9010E94BB22DC01CB01BC018A
:10368000CD0120E030E040E85FE30E948E22DC01C3
:10369000CB01BC01CD010E943F279B01AC0160E042
:1036A00070E080E89FE30E94B523DC01CB019C0120
:1036B000AD01C801B7010E94BB22DC01CB015C0156
:1036C0006D0180916203909163030197880F991FA8
:1036D000880F991FFC01E654FC4F80819181AA2735
:1036E00097FDA095BA2FBC01CD010E9461243B013A
:1036F0004C01E0905003F09051030091520310915F
:103700005303209150033091510340915203509143
:103710005303CA01B9010E94BB22DC01CB01BC01E9
:10372000CD0120E030E040E85FE30E948E22DC0122
:10373000CB01BC01CD010E943F279B01AC01C80118
:10374000B7010E94B523DC01CB019C01AD01C4018E
:10375000B3010E94BB22DC01CB019C01AD01C6017B
:10376000B5010E948E22DC01CB01BC01CD010E947B
:10377000BF24DC01CB0190937F0280937E0281E025
:1037800090E09A87898702C01A86198689859A856A
:103790002A960FB6F894DEBF0FBECDBFCF91DF9152
:1037A0001F910F91FF90EF90DF90CF90BF90AF905F
:1037B0009F908F907F906F900895DF93CF9300D06C
:1037C00000D0CDB7DEB79C838B838B819C81019623
:1037D0009A83898305C089819A8101969A83898316
:1037E00089819A81880F991F0196880F991FFC0182
:1037F000E654FC4F80819181009769F789819A8115
:103800000F900F900F900F90CF91DF910895DF935D
:10381000CF9300D0CDB7DEB780916C0390916D034C
:10382000009729F081E090E09A83898302C01A8290
:10383000198289819A810F900F90CF91DF9108951D
:10384000DF93CF9300D000D0CDB7DEB71A821982B4
:1038500016C089819A81880F991F0196880F991F38
:10386000FC01E654FC4F80819181009719F01C8285
:103870001B8212C089819A8101969A838983209143
:1038800062033091630389819A81821793070CF355
:1038900081E090E09C838B838B819C810F900F90C3
:1038A0000F900F90CF91DF910895DF93CF9300D0C9
:1038B00000D0CDB7DEB71A8219821C821B8217C0D6
:1038C0008B819C81880F991F0196880F991FFC019D
:1038D000E654FC4F80819181009721F081E090E0D7
:1038E0009A8389838B819C8101969C838B83209111
:1038F0006203309163038B819C818217930704F3E9
:1039000089819A810F900F900F900F90CF91DF9146
:103910000895DF93CF9300D000D000D0CDB7DEB7AD
:103920008FEF9FEF9A8389831C821B8249C08B8112
:103930009C81880F991F0196880F991FFC01E654FE
:10394000FC4F808191810097A1F48B819C8101962D
:10395000880F991F0196880F991FFC01E654FC4FB0
:1039600080819181009729F08B819C819A83898342
:1039700022C08B819C81880F991F0196880F991F07
:10398000FC01E654FC4F808191810097A1F08B816E
:103990009C810196880F991F0196880F991FFC0141
:1039A000E654FC4F80819181009729F489819A81A6
:1039B0009E838D8316C08B819C8101969C838B8313
:1039C00080916203909163039C01215030408B8170
:1039D0009C81821793070CF4AACF8FEF9FEF9E83F1
:1039E0008D838D819E8126960FB6F894DEBF0FBE23
:1039F000CDBFCF91DF910895EF92FF920F931F9368
:103A0000DF93CF9300D000D0CDB7DEB79A83898300
:103A10007C836B83EB81FC8120813181E981FA8198
:103A200080819181281739070CF071C0EB81FC81EE
:103A300080819181AA2797FDA095BA2FBC01CD0165
:103A40000E9461247B018C01E981FA81808191814E
:103A5000AA2797FDA095BA2FBC01CD010E94612431
:103A60009B01AC01C801B7010E94B523DC01CB0169
:103A70008093500390935103A0935203B093530348
:103A8000EB81FC8180819181AA2797FDA095BA2FB7
:103A9000BC01CD010E9461247B018C012091500367
:103AA000309151034091520350915303CA01B9011F
:103AB0000E94BB22DC01CB01BC01CD0120E030E043
:103AC00040E85FE30E948E22DC01CB01BC01CD0106
:103AD0000E943F279B01AC0160E070E080E89FE31B
:103AE0000E94B523DC01CB019C01AD01C801B701E7
:103AF0000E94BB22DC01CB01BC01CD010E94BF248E
:103B0000DC01CB0190937D0280937C0270C0E9813F
:103B1000FA8180819181AA2797FDA095BA2FBC01D7
:103B2000CD010E9461247B018C01EB81FC818081AD
:103B30009181AA2797FDA095BA2FBC01CD010E94C3
:103B400061249B01AC01C801B7010E94B523DC01CF
:103B5000CB018093500390935103A0935203B093F1
:103B60005303E981FA8180819181AA2797FDA0956D
:103B7000BA2FBC01CD010E9461247B018C012091F0
:103B80005003309151034091520350915303CA01A5
:103B9000B9010E94BB22DC01CB01BC01CD0120E0B8
:103BA00030E040E85FE30E948E22DC01CB01BC01E3
:103BB000CD010E943F279B01AC0160E070E080E8EE
:103BC0009FE30E94B523DC01CB019C01AD01C8013C
:103BD000B7010E94BB22DC01CB01BC01CD010E94D8
:103BE000BF24DC01CB0190937D0280937C020F9077
:103BF0000F900F900F90CF91DF911F910F91FF9039
:103C0000EF900895EF92FF920F931F93DF93CF935E
:103C1000CDB7DEB728970FB6F894DEBF0FBECDBF85
:103C20009C838B837E836D8358874F838B819C819C
:103C30002D813E814F815885B9010E94C6209A830B
:103C4000898389819A818130910509F087C0EB8150
:103C5000FC8180819181AA2797FDA095BA2FBC0194
:103C6000CD010E9461247B018C01EF81F885808168
:103C70009181AA2797FDA095BA2FBC01CD010E9482
:103C800061249B01AC01C801B7010E945D22DC01E7
:103C9000CB017C018D01ED81FE8180819181AA277C
:103CA00097FDA095BA2FBC01CD010E9461249B0114
:103CB000AC01C801B7010E94B523DC01CB018093A0
:103CC000500390935103A0935203B0935303EB819D
:103CD000FC8180819181AA2797FDA095BA2FBC0114
:103CE000CD010E9461247B018C0120915003309111
:103CF00051034091520350915303CA01B9010E94EC
:103D0000BB22DC01CB01BC01CD0120E030E040E86A
:103D10005FE30E948E22DC01CB01BC01CD010E9439
:103D20003F279B01AC0160E070E080E89FE30E94C8
:103D3000B523DC01CB019C01AD01C801B7010E9494
:103D4000BB22DC01CB01BC01CD010E94BF24DC0100
:103D5000CB0190937D0280937C028CC089819A81F3
:103D60008230910509F086C0EF81F88580819181CC
:103D7000AA2797FDA095BA2FBC01CD010E9461240E
:103D80007B018C01EB81FC8180819181AA2797FDC9
:103D9000A095BA2FBC01CD010E9461249B01AC010A
:103DA000C801B7010E945D22DC01CB017C018D01BD
:103DB000ED81FE8180819181AA2797FDA095BA2F80
:103DC000BC01CD010E9461249B01AC01C801B70177
:103DD0000E94B523DC01CB018093500390935103E3
:103DE000A0935203B0935303EF81F88580819181B2
:103DF000AA2797FDA095BA2FBC01CD010E9461248E
:103E00007B018C012091500330915103409152036A
:103E100050915303CA01B9010E94BB22DC01CB01BE
:103E2000BC01CD0120E030E040E85FE30E948E223B
:103E3000DC01CB01BC01CD010E943F279B01AC01FD
:103E400060E070E080E89FE30E94B523DC01CB01D5
:103E50009C01AD01C801B7010E94BB22DC01CB016E
:103E6000BC01CD010E94BF24DC01CB0190937D02F7
:103E700080937C0228960FB6F894DEBF0FBECDBFAC
:103E8000CF91DF911F910F91FF90EF9008956F9266
:103E90007F928F929F92AF92BF92CF92DF92EF92DA
:103EA000FF920F931F93DF93CF93CDB7DEB7289781
:103EB0000FB6F894DEBF0FBECDBF9A8389837C8393
:103EC0006B835E834D8338872F83ED81FE818081F4
:103ED0009181AA2797FDA095BA2FBC01CD010E9420
:103EE00061247B018C01E981FA8180819181AA277B
:103EF00097FDA095BA2FBC01CD010E9461249B01C2
:103F0000AC01C801B7010E945D22DC01CB015C015C
:103F10006D01EB81FC8180819181AA2797FDA0959D
:103F2000BA2FBC01CD010E9461247B018C01EF817D
:103F3000F88580819181AA2797FDA095BA2FBC01B1
:103F4000CD010E9461249B01AC01C801B7010E9410
:103F50005D22DC01CB019C01AD01C601B5010E94CF
:103F6000B523DC01CB018093500390935103A093C0
:103F70005203B0935303E981FA8180819181AA278A
:103F800097FDA095BA2FBC01CD010E9461247B0151
:103F90008C01209150033091510340915203509174
:103FA0005303CA01B9010E94BB22DC01CB01BC0151
:103FB000CD0120E030E040E85FE30E948E22DC018A
:103FC000CB01BC01CD010E943F279B01AC0160E009
:103FD00070E080E89FE30E94B523DC01CB019C01E7
:103FE000AD01C801B7010E94BB22DC01CB015C011D
:103FF0006D01EB81FC8180819181AA2797FDA095BD
:10400000BA2FBC01CD010E9461243B014C01E0901C
:104010005003F090510300915203109153032091EB
:104020005003309151034091520350915303CA0100
:10403000B9010E94BB22DC01CB01BC01CD0120E013
:1040400030E040E85FE30E948E22DC01CB01BC013E
:10405000CD010E943F279B01AC01C801B7010E941E
:10406000B523DC01CB019C01AD01C401B3010E9469
:10407000BB22DC01CB019C01AD01C601B5010E9450
:104080008E22DC01CB01BC01CD010E94BF24DC01EA
:10409000CB0190937D0280937C0228960FB6F89412
:1040A000DEBF0FBECDBFCF91DF911F910F91FF906B
:1040B000EF90DF90CF90BF90AF909F908F907F90C8
:1040C0006F900895DF93CF93CDB7DEB728970FB6E3
:1040D000F894DEBF0FBECDBF9C838B837E836D8340
:1040E00058874F8384E090E00E94B9279A838983A0
:1040F0008B819C8182519D4FE981FA8191838083DC
:104100002D813E818F8198852817390729F4E9810F
:10411000FA811382128206C0E981FA8181E090E07F
:104120009383828389819A8128960FB6F894DEBFA3
:104130000FBECDBFCF91DF910895DF93CF9300D015
:1041400000D000D0CDB7DEB79A8389837C836B83A0
:10415000E981FA8182819381009759F0EB81FC819A
:1041600082819381009729F081E090E09E838D8386
:1041700002C01E821D828D819E8126960FB6F89404
:10418000DEBF0FBECDBFCF91DF910895DF93CF93F8
:10419000CDB7DEB728970FB6F894DEBF0FBECDBF00
:1041A0009A8389837C836B835E834D83E981FA8163
:1041B00082819381009789F0EB81FC8182819381D8
:1041C000009759F4ED81FE8182819381009729F453
:1041D00081E090E098878F8319C0E981FA8182811C
:1041E0009381009789F4EB81FC8182819381009710
:1041F00059F4ED81FE8182819381009729F082E05C
:1042000090E098878F8302C018861F828F819885DF
:1042100028960FB6F894DEBF0FBECDBFCF91DF91C9
:104220000895A0E0B0E0E7E1F1E20C940427DC019E
:104230002B01FA019C91923008F439C1EB0188817D
:10424000823008F433C1943069F4843009F02FC10E
:1042500011969C9111978981981709F428C1AFE4B0
:10426000B1E025C1843009F421C18230A9F4923033
:1042700009F01DC19A01AD0188E0EA010990AE0183
:10428000E90109929E018150C1F7E20189811196ED
:104290009C918923818308C1923009F407C1129649
:1042A0002D903C901397EB018A819B811496AD90E1
:1042B000BD90CD90DC901797EC80FD800E811F8122
:1042C0009101281B390BB90137FF04C066277727F6
:1042D000621B730B603271050CF061C0121613067D
:1042E0006CF537014801062E04C0969487947794A4
:1042F00067940A94D2F721E030E040E050E004C037
:10430000220F331F441F551F6A95D2F721503040AA
:10431000404050402E213F2140235123211531059B
:104320004105510521F021E030E040E050E0790105
:104330008A01E628F728082919293CC0232BD1F146
:10434000260E371E35014601062E04C0969487942A
:10435000779467940A94D2F721E030E040E050E08F
:1043600004C0220F331F441F551F6A95D2F72150F6
:104370003040404050402A213B214C215D212115F5
:1043800031054105510521F021E030E040E050E0E9
:1043900059016A01A628B728C828D9280BC0821558
:1043A00093052CF01C01AA24BB24650103C0EE2454
:1043B000FF24870111969C91D20111968C91981738
:1043C00009F445C0992339F0A80197012A193B093E
:1043D0004C095D0906C0A60195012E193F09400B45
:1043E000510B57FD08C0118233822282248335830A
:1043F000468357831DC081E08183338222828827D0
:104400009927DC01821B930BA40BB50B8483958346
:10441000A683B7830DC0220F331F441F551F24836B
:104420003583468357838281938101979383828367
:104430002481358146815781DA01C9010197A1099B
:10444000B1098F5F9F4FAF4FBF4328F30BC09183DC
:1044500033822282EA0CFB1C0C1D1D1DE482F582B6
:104460000683178383E080832481358146815781C9
:1044700057FF1AC0C901AA2797FDA095BA2F8170CE
:104480009070A070B0705695479537952795822B00
:10449000932BA42BB52B84839583A683B78382812A
:1044A0009381019693838283DF0101C0D201CD0104
:1044B000CDB7DEB7E2E10C942027A0E2B0E0E3E65E
:1044C000F2E20C94102769837A838B839C832D837B
:1044D0003E834F835887E9E0EE2EF12CEC0EFD1E53
:1044E000CE010196B7010E9437268E010F5E1F4F45
:1044F000CE010596B8010E9437268A8991E0892766
:104500008A8BC701B801AE01475E5F4F0E9411213F
:104510000E946225A096E6E00C942C27A0E2B0E071
:10452000E4E9F2E20C94102769837A838B839C83FD
:104530002D833E834F835887F9E0EF2EF12CEC0E4C
:10454000FD1ECE010196B7010E9437268E010F5E37
:104550001F4FCE010596B8010E943726C701B8014A
:10456000AE01475E5F4F0E9411210E946225A09616
:10457000E6E00C942C27A0E2B0E0E1ECF2E20C942F
:10458000042769837A838B839C832D833E834F83A7
:104590005887CE010196BE01675F7F4F0E94372684
:1045A000CE010596BE016F5E7F4F0E94372699852A
:1045B000923088F089898230C8F0943019F48230C2
:1045C00051F404C0843029F4923081F48FE491E0F6
:1045D000C6C0923049F420E09A858A89981321E078
:1045E0002A87CE010996BBC0823049F420E09A8523
:1045F0008A89981321E02A8BCE014196B0C02D8480
:104600003E844F8458886D887E888F88988CEE24ED
:10461000FF248701AA24BB24650140E050E060E04C
:1046200070E0E0E0F0E0C10181709070892BE9F06A
:10463000E60CF71C081D191D9A01AB012A0D3B1D44
:104640004C1D5D1D80E090E0A0E0B0E0E614F704B2
:104650000805190520F481E090E0A0E0B0E0BA017F
:10466000A901480F591F6A1F7B1FAA0CBB1CCC1C39
:10467000DD1C97FE08C081E090E0A0E0B0E0A82A31
:10468000B92ACA2ADB2A3196E032F10549F0660CD4
:10469000771C881C991C5694479437942794C3CF51
:1046A000FA85EA892B893C898B859C85280F391FDF
:1046B0002E5F3F4F17C0CA0181709070892B61F047
:1046C00016950795F794E79480E090E0A0E0B0E8B5
:1046D000E82AF92A0A2B1B2B76956795579547955B
:1046E0002F5F3F4F77FDE7CF0CC0440F551F661F6C
:1046F000771F17FD4160EE0CFF1C001F111F21509A
:104700003040403090E0590790E0690790E4790725
:1047100060F32B8F3C8FDB01CA018F779070A07004
:10472000B07080349105A105B10561F447FD0AC060
:10473000E114F1040105110529F0405C5F4F6F4F52
:104740007F4F40781A8EFE1711F081E08A8F4D8FCF
:104750005E8F6F8F78A383E0898FCE0149960E9488
:104760006225A096E2E10C942027A8E1B0E0EBEBF3
:10477000F3E20C940C2769837A838B839C832D83CB
:104780003E834F835887B9E0EB2EF12CEC0EFD1ED3
:10479000CE010196B7010E9437268E010F5E1F4F92
:1047A000CE010596B8010E9437262985223008F4EB
:1047B0007EC03989323010F4B8017CC08A859A896C
:1047C00089278A87243011F0223031F4231709F029
:1047D0006EC06FE471E06EC0343039F41D861E8601
:1047E0001F86188A1C861B8604C0323021F484E0A0
:1047F0008987B7015FC02B853C858B899C89281BE5
:10480000390B3C872B87ED84FE840F851889AD8892
:10481000BE88CF88D88CEA14FB040C051D0540F433
:10482000EE0CFF1C001F111F215030403C872B87CE
:1048300020E030E040E050E080E090E0A0E0B0E434
:1048400060E070E0EA14FB040C051D0540F0282B25
:10485000392B4A2B5B2BEA18FB080C091D09B6956E
:10486000A79597958795EE0CFF1C001F111F6F5F92
:104870007F4F6F31710531F7DA01C9018F77907081
:10488000A070B07080349105A105B10561F427FDD9
:104890000AC0E114F1040105110529F0205C3F4F25
:1048A0004F4F5F4F20782D873E874F87588BBE0133
:1048B000675F7F4FCB010E9462256896EAE00C9407
:1048C0002827A8E0B0E0E7E6F4E20C940D279B016E
:1048D000AC0183E08983DA01C9018827B7FD83959C
:1048E0009927AA27BB27B82E211531054105510567
:1048F00019F482E089833AC08823A9F0203080E04F
:10490000380780E0480780E8580729F460E070E045
:1049100080E09FEC30C0EE24FF248701E21AF30A06
:10492000040B150B02C079018A018EE1C82ED12C2F
:10493000DC82CB82ED82FE820F831887C801B7012B
:104940000E94132501971816190684F4082E04C036
:10495000EE0CFF1C001F111F0A94D2F7ED82FE829D
:104960000F831887C81AD90ADC82CB82BA82CE019B
:1049700001960E9462252896E9E00C942927ACE074
:10498000B0E0E5ECF4E20C94142769837A838B831E
:104990009C83CE010196BE016B5F7F4F0E9437263C
:1049A0008D81823061F1823050F1843021F48E812A
:1049B000882351F12EC02F81388537FD20C06E81AC
:1049C0002F3131051CF06623F9F023C08EE190E011
:1049D000821B930B29853A854B855C8504C05695CF
:1049E0004795379527958A95D2F76623B1F050956C
:1049F0004095309521953F4F4F4F5F4F0EC020E0BF
:104A000030E040E050E009C02FEF3FEF4FEF5FE7AD
:104A100004C020E030E040E050E8B901CA012C9623
:104A2000E2E00C943027EF92FF920F931F937B01EB
:104A30008C0180E0E81680E0F80681E0080780E05D
:104A4000180788F48FEFE816F1040105110531F01D
:104A500028F088E090E0A0E0B0E017C080E090E0AF
:104A6000A0E0B0E012C080E0E81680E0F80680E048
:104A7000080781E0180728F088E190E0A0E0B0E0A6
:104A800004C080E190E0A0E0B0E020E230E040E04F
:104A900050E0281B390B4A0B5B0B04C01695079599
:104AA000F794E7948A95D2F7F701E95AFE4F80818F
:104AB000281B310941095109C9011F910F91FF902C
:104AC000EF900895DF92EF92FF920F931F93FC01F6
:104AD000E480F58006811781D1808081823048F49E
:104AE00080E090E0A0E1B0E0E82AF92A0A2B1B2B35
:104AF000A5C0843009F49FC0823021F4EE24FF2445
:104B0000870105C0E114F1040105110519F4E0E085
:104B1000F0E096C0628173819FEF623879070CF0F4
:104B20005BC022E83FEF261B370B2A3131052CF002
:104B300020E030E040E050E02AC0B801A701022E9A
:104B400004C076956795579547950A94D2F781E00A
:104B500090E0A0E0B0E004C0880F991FAA1FBB1F1F
:104B60002A95D2F70197A109B1098E219F21A0238F
:104B7000B1230097A105B10521F081E090E0A0E00C
:104B8000B0E09A01AB01282B392B4A2B5B2BDA01C1
:104B9000C9018F779070A070B07080349105A10525
:104BA000B10539F427FF09C0205C3F4F4F4F5F4FDD
:104BB00004C0215C3F4F4F4F5F4FE0E0F0E02030FA
:104BC000A0E03A07A0E04A07A0E45A0710F0E1E0AD
:104BD000F0E079018A0127C06038710564F5FB01B6
:104BE000E158FF4FD801C7018F779070A070B07067
:104BF00080349105A105B10539F4E7FE0DC080E4CC
:104C000090E0A0E0B0E004C08FE390E0A0E0B0E06E
:104C1000E80EF91E0A1F1B1F17FF05C01695079502
:104C2000F794E794319687E016950795F794E79403
:104C30008A95D1F705C0EE24FF248701EFEFF0E05D
:104C40006E2F679566276795902F9F77D794DD2401
:104C5000D7948E2F8695492F462B582F5D29B70163
:104C6000CA011F910F91FF90EF90DF900895FC0112
:104C7000DB01408151812281622F6F7770E0221F1A
:104C80002227221F9381892F880F822B282F30E023
:104C9000991F9927991F11969C93119721153105FA
:104CA000A9F5411551056105710511F482E037C080
:104CB00082E89FEF13969C938E9312979A01AB0113
:104CC00067E0220F331F441F551F6A95D1F783E019
:104CD0008C930DC0220F331F441F551F12968D91C8
:104CE0009C911397019713969C938E931297203063
:104CF00080E0380780E0480780E4580758F31496AE
:104D00002D933D934D935C93179708952F3F310555
:104D100079F4411551056105710519F484E08C930E
:104D2000089564FF03C081E08C9312C01C9210C0F0
:104D30002F57304013963C932E93129783E08C9319
:104D400087E0440F551F661F771F8A95D1F770645F
:104D500014964D935D936D937C9317970895629F7E
:104D6000D001739FF001829FE00DF11D649FE00D63
:104D7000F11D929FF00D839FF00D749FF00D659FC4
:104D8000F00D9927729FB00DE11DF91F639FB00DC3
:104D9000E11DF91FBD01CF0111240895AA1BBB1B02
:104DA00051E107C0AA1FBB1FA617B70710F0A61B2B
:104DB000B70B881F991F5A95A9F780959095BC014C
:104DC000CD010895A1E21A2EAA1BBB1BFD010DC047
:104DD000AA1FBB1FEE1FFF1FA217B307E407F507AB
:104DE00020F0A21BB30BE40BF50B661F771F881F87
:104DF000991F1A9469F760957095809590959B011D
:104E0000AC01BD01CF0108952F923F924F925F9266
:104E10006F927F928F929F92AF92BF92CF92DF92CA
:104E2000EF92FF920F931F93CF93DF93CDB7DEB72F
:104E3000CA1BDB0B0FB6F894DEBF0FBECDBF0994C3
:104E40002A88398848885F846E847D848C849B841A
:104E5000AA84B984C884DF80EE80FD800C811B8128
:104E6000AA81B981CE0FD11D0FB6F894DEBF0FBE57
:104E7000CDBFED01089511F40EF44FC040C05FD0D6
:104E8000D0F39923D9F3CEF39F57550B87FF48D022
:104E90000024A0E640EA202D312D805856959795A4
:104EA00028F4805C660F771F881F20F026173707CD
:104EB000480730F4621B730B840B202931294A2BDD
:104EC000A69517940794202531254A2758F7660F91
:104ED000771F881F20F026173707480730F4620B2A
:104EE000730B840B200D311D411DA09581F7622F9E
:104EF000732F842F9158880F9695879508959F3F1B
:104F000031F0915020F4879577956795B795880F84
:104F1000911D9695879597F908959FEF80EC0895D8
:104F200091505040660F771F881FD2F7089557FDA4
:104F30009058440F551F59F05F3F71F04795880F07
:104F400097FB991F61F09F3F79F08795089512169E
:104F500013061406551FF2CF4695F1DF08C016164A
:104F600017061806991FF1CF8695710561050894FB
:104F70000895CF93DF93682F792F8230910510F435
:104F800062E070E0A0910C04B0910D04CA2FDB2FF9
:104F9000E0E0F0E040E050E026C08881998186178B
:104FA000970771F48A819B81309719F093838283EC
:104FB00004C090930D0480930C04EC2FFD2F3BC094
:104FC0006817790740F44115510519F084179507C2
:104FD00010F4482F592FEC2FFD2F8A819B81282F09
:104FE000392FC22FD32F2097C1F641155105E9F172
:104FF000842F952F861B970B049710F4642F752F21
:10500000E0E0F0E030C08D919C91119784179507F6
:1050100011F56417750789F412968D919C91139779
:10502000309719F09383828304C090930D0480938A
:105030000C04EA2FFB2F329657C0842F952F861B26
:10504000970BEA2FFB2FE80FF91F619371930297DB
:105050008D939C9349C0EA2FFB2F82819381282F47
:10506000392FA22FB32F109771F680910A049091D7
:105070000B04892B41F48091590290915A0290932C
:105080000B0480930A0440915B0250915C0241152D
:10509000510541F44DB75EB7809157029091580287
:1050A000481B590B20910A0430910B042417350733
:1050B000C8F4842F952F821B930B8617970790F0C7
:1050C000462F572F4E5F5F4F8417950758F0420FBA
:1050D000531F50930B0440930A04E22FF32F619364
:1050E000719302C0E0E0F0E08E2F9F2FDF91CF910F
:1050F0000895CF93DF93009709F456C0C82FD92F96
:1051000022971B821A82A0910C04B0910D04109773
:1051100011F140E050E0AC17BD0710F1BB83AA834A
:10512000EC2FFD2F21913191E20FF31FAE17BF0736
:1051300079F48D919C911197280F391F2E5F3F4F65
:105140003983288312968D919C9113979B838A8330
:105150004115510581F4D0930D04C0930C0424C073
:1051600012968D919C9113974A2F5B2F009719F0FF
:10517000A82FB92FD0CFE42FF52FD383C28321914D
:105180003191E20FF31FCE17DF0771F48881998107
:10519000280F391F2E5F3F4FE42FF52F31832083D7
:1051A0008A819B8193838283DF91CF910895E82F39
:1051B000F92F01900020E9F7809590958E0F9F1FA1
:1051C0000895E62FF72F2E2F3F2FE8944230C4F09A
:1051D0004532B4F44A3029F497FB1EF4909581953A
:1051E0009F4F642F7727DADD805D8A330CF0895D6D
:1051F0008193862F972F0097A1F716F45DE25193C4
:105200001082822F932F00C0A82FB92FE82FF92FDB
:10521000672F71917723E1F7329704C07C916D93EA
:1052200070836291AE17BF07C8F30895F894FFCF5B
:105230004A02CC0301000B1E0B42554D5045522033
:10524000484954204C4546540A0042554D50455259
:10525000204849542052494748540A005354415465
:10526000453A20524F544154450A00524F5441543C
:105270004520434F4D504C4554450A0046697273D2
:105280007420536964653A20005365636F6E64202F
:10529000536964653A2000726F746174696E6720A7
:1052A0006E6F770A00545241434B204144444544B9
:1052B000200A004861732063726F737320747261F7
:1052C000636B73200048617320656E6F756768209B
:1052D00063726F737320747261636B732000696E05
:1052E00064657820666972737420436F726E6572AC
:1052F00020747261636B3A2000696E646578206C7B
:1053000061737420436F726E657220747261636B97
:105310003A2000434F53200A0053494E200A000010
:105320000000000000000000010202030303030468
:105330000404040404040405050505050505050524
:105340000505050505050506060606060606060604
:1053500006060606060606060606060606060606ED
:1053600006060606060606070707070707070707D4
:1053700007070707070707070707070707070707BD
:1053800007070707070707070707070707070707AD
:10539000070707070707070707070707070707079D
:1053A0000707070707070708080808080808080884
:1053B000080808080808080808080808080808086D
:1053C000080808080808080808080808080808085D
:1053D000080808080808080808080808080808084D
:1053E000080808080808080808080808080808083D
:1053F000080808080808080808080808080808082D
:10540000080808080808080808080808080808081C
:10541000080808080808080808080808080808080C
:0E5420000808080808080820000E0400000014
:00000001FF
