:100000000C9409010C9480030C94A6030C94BE0A72
:100010000C940A0A0C9426010C9426010C942601D7
:100020000C9426010C9426010C94C80E0C94260105
:100030000C9426010C9497140C9426010C94260120
:100040000C9426010C9426010C9426010C94BC12ED
:100050000C94260154686520526F626F74206E659F
:1000600065647320746F20626520726573657474B3
:100070006564206E6F772E0A0A00596F75206E65D1
:10008000656420746F20636865636B204D6F746FC7
:100090007220617373656D626C7920286F722079AC
:1000A0006F757220736F667477617265292E0A0A04
:1000B000000A0A28732E207461736B5F6D6F746F72
:1000C00072436F6E74726F6C28292066756E63744C
:1000D000696F6E20696E205250364C696221290A80
:1000E000000A0A232323204D4F544F52204F5645D8
:1000F0005243555252454E54202323230A00596F30
:1001000075206E65656420746F20636865636B207D
:10011000456E636F6465722F4D6F746F72206173EB
:1001200073656D626C7920286F7220796F7572200B
:10013000736F667477617265292E0A0A00210A0AB4
:1001400028732E207461736B5F6D6F746F72436FD1
:100150006E74726F6C28292066756E6374696F6E99
:1001600020696E205250364C696221290A0052499A
:10017000474854004C4546540041666665637465C3
:1001800064206368616E6E656C3A000A2323232045
:10019000454E434F44455220284F52204D4F544F17
:1001A0005229204D414C46554E4354494F4E212033
:1001B0002323230A00232323232320414C4C204FB5
:1001C0005045524154494F4E532053544F5050457F
:1001D0004420544F2050524556454E5420414E59CC
:1001E0002044414D414745212023232323230A0056
:1001F0000A0A232323232320454D455247454E43D6
:10020000592053485554444F574E2023232323232A
:100210000A0011241FBECFE5D8E0DEBFCDBF10E03D
:10022000A0E6B0E0E2E7FEE202C005900D92AC3E2F
:10023000B107D9F711E0ACEEB0E001C01D92A83EC5
:10024000B107E1F70E947F150C9437170C9400005A
:10025000DF93CF93CDB7DEB780912101843010F0CA
:1002600010922101CF91DF910895DF93CF93CDB705
:10027000DEB784E080932101CF91DF910895DF9371
:10028000CF9300D0CDB7DEB7A7E3B0E0E7E3F0E06F
:1002900080818C778C93A8E3B0E0E8E3F0E0808184
:1002A0008C778C9380914F018870882371F0A7E33D
:1002B000B0E0E7E3F0E0808180688C93A8E3B0E0F1
:1002C000E8E3F0E0808180688C9380914F01807139
:1002D000882371F0A7E3B0E0E7E3F0E0808182607B
:1002E0008C93A8E3B0E0E8E3F0E0808182608C9337
:1002F00080914F018072882371F0A7E3B0E0E7E3BB
:10030000F0E0808181608C93A8E3B0E0E8E3F0E066
:10031000808181608C93A4E3B0E0E4E3F0E080812D
:100320008F788C93A5E3B0E0E5E3F0E080818F78EF
:100330008C93A4E3B0E0E4E3F0E08081282F809187
:100340004F01882F90E082959295907F9827807F2B
:1003500098278077822B8C93A5E3B0E0E5E3F0E06B
:100360008081282F80914F01882F90E0829592956F
:10037000907F9827807F98278077822B8C9380911D
:100380002101882359F480914F018A838A8188232F
:1003900011F081E08A838A81898303C080912101E1
:1003A00089838981809321010F900F90CF91DF91F4
:1003B0000895DF93CF930F92CDB7DEB789838981FC
:1003C00080934F010E943F010F90CF91DF910895DC
:1003D000DF93CF930F92CDB7DEB7A8E3B0E0E8E3A9
:1003E000F0E080818E7F8C93A7E3B0E0E7E3F0E05C
:1003F00080818E7F8C930000E6E3F0E08081817045
:10040000898380914F018072882371F0A7E3B0E067
:10041000E7E3F0E0808181608C93A8E3B0E0E8E35B
:10042000F0E0808181608C9389810F90CF91DF9182
:100430000895DF93CF930F92CDB7DEB7A5E3B0E079
:10044000E5E3F0E080818F7B8C93A4E3B0E0E4E30C
:10045000F0E080818F7B8C930000E3E3F0E080810B
:100460008074898380914F018470882371F0A4E3A4
:10047000B0E0E4E3F0E0808180648C93A5E3B0E039
:10048000E5E3F0E0808180648C9389810F90CF91C7
:10049000DF910895DF93CF93CDB7DEB7CF91DF9192
:1004A0000895DF93CF9300D0CDB7DEB79A838983C9
:1004B00089819A8190936100809360000F900F90E2
:1004C000CF91DF910895DF93CF9300D0CDB7DEB702
:1004D00080915A018333E8F00E94E8018A830E94E8
:1004E0001902898390910A018A81981729F49091C1
:1004F0006B018981981759F08A8180930A0189815B
:1005000080936B01E0916000F09161000995109279
:100510005A010F900F90CF91DF910895DF93CF9301
:1005200000D00F92CDB7DEB78983E6E2F0E080819C
:10053000882F90E080749070009719F01B821A82C7
:100540001FC0E7E2F0E0898180648083E6E2F0E0AA
:1005500086ED8083E6E2F0E08081882F90E0807471
:1005600090700097B9F7A6E2B0E0E6E2F0E0808193
:1005700080618C93E4E2F0E0808191819B838A83A7
:100580008A819B810F900F900F90CF91DF910895FA
:10059000DF93CF930F92CDB7DEB78983E7E2F0E028
:1005A000898180648083E6E2F0E086ED80830F90AD
:1005B000CF91DF910895DF93CF9300D0CDB7DEB711
:1005C000E6E2F0E08081882F90E0807490700097E0
:1005D00009F091C08091F100282F30E03A832983FF
:1005E00089819A818330910509F44AC029813A8131
:1005F000243031057CF489819A818130910541F163
:1006000029813A81223031057CF589819A810097D0
:1006100099F065C029813A812530310509F448C037
:1006200089819A8185309105BCF129813A812630F2
:10063000310509F449C053C0E4E2F0E080819181C2
:1006400090936F0180936E0186E00E94C80247C0BC
:10065000E4E2F0E0808191819093740180937301D2
:1006600085E00E94C8023BC0E4E2F0E08081918115
:10067000909365018093640183E00E94C8022FC0BB
:10068000E4E2F0E08081918190932D0180932C0130
:1006900082E00E94C80223C0E4E2F0E08081918100
:1006A000909354018093530180E00E94C80217C0C8
:1006B000E4E2F0E080819181909362018093610196
:1006C00081E00E94C8020BC0E4E2F0E080819181E9
:1006D00090932B0180932A0187E00E94C8028091A9
:1006E000F100863019F41092F10005C08091F100FC
:1006F0008F5F8093F1000F900F90CF91DF9108955D
:100700001F920F920FB60F9211248F939F93DF9336
:10071000CF93CDB7DEB78091690190916A010196C0
:1007200090936A018093690180915F0190916001CB
:1007300001969093600180935F01CF91DF919F912B
:100740008F910F900FBE0F901F9018951F920F92D0
:100750000FB60F9211248F939F93DF93CF93CDB752
:10076000DEB780915B0190915C01019690935C01F2
:1007700080935B01809134019091350101969093B3
:10078000350180933401CF91DF919F918F910F902C
:100790000FBE0F901F901895DF93CF93CDB7DEB7A4
:1007A000CF91DF910895DF93CF9300D0CDB7DEB71F
:1007B0009A83898389819A819093630080936200F0
:1007C0000F900F90CF91DF910895DF93CF9300D0DA
:1007D000CDB7DEB78A83F894A2E3B0E0E2E3F0E0BD
:1007E00080818F778C930E94F20D109223011092DA
:1007F0002201109233011092320110921D011092C9
:100800001C0110925901109258011092720110921D
:100810005001EAE4F0E01082E8E4F0E01082EFE456
:10082000F0E010820E94A10E80EF91E00E94D413AC
:1008300085EB91E00E94D4138A81813019F08A817E
:100840008230E9F48BE891E00E94D41389E791E0CB
:100850000E94D4138A81813029F484E791E00E94B8
:10086000D41304C08EE691E00E94D4138DE391E08E
:100870000E94D4138EEF90E00E94D4130FC08A819F
:10088000833061F481EE90E00E94D41381EB90E01C
:100890000E94D4138AE790E00E94D41384E590E08C
:1008A0000E94D41386E30E94D9018AE0898307C09D
:1008B00080E090E80E94AE1189818150898389810E
:1008C0008823B1F780E00E94D9018AE0898307C0BC
:1008D0008FEF9FEF0E94AE118981815089838981BA
:1008E0008823B1F7DFCFDF93CF93CDB7DEB728975B
:1008F0000FB6F894DEBF0FBECDBF80914E0182339C
:1009000008F47EC010924E0180914B01882309F0BB
:1009100043C0809173019091740123E0833092076A
:1009200040F4809164019091650143E08330940725
:10093000F0F080914D018F5F80934D018AE08093AC
:100940004B01109223011092220110923301109258
:10095000320110921D0110921C0110925901109247
:1009600058018091150184608093150159C28091CE
:1009700015018B7F8093150180911801853628F031
:1009800010924D011092180107C080914D018330E3
:1009900018F083E00E94E503809173019091740147
:1009A0008639910598F48091240190912501009752
:1009B00069F48091110190911201009739F08091B2
:1009C0007201873918F081E00E94E503809164018B
:1009D000909165018639910598F480916701909115
:1009E0006801009769F480910D0190910E010097C4
:1009F00039F080915001873918F082E00E94E503B8
:100A000080912001882309F4FCC180914B01882347
:100A100009F0F0C180914D01882331F080911801D7
:100A20008F5F8093180102C0109218018091150108
:100A30008270882309F43FC02091690130916A01D6
:100A400080910B0190910C012817390790F01092BA
:100A500012011092110110921D0110921C011092AE
:100A6000230110922201809115018D7F8093150141
:100A700022C02091690130916A01809126019091F4
:100A8000270128173907B8F08091110190911201C0
:100A90009695879590931201809311018091110191
:100AA000909112018631910530F486E190E09093A7
:100AB000120180931101809115018170882309F43E
:100AC0003FC020915B0130915C0180913001909199
:100AD00031012817390790F010920E0110920D0184
:100AE0001092590110925801109233011092320164
:100AF000809115018E7F8093150122C020915B01AA
:100B000030915C0180915D0190915E012817390759
:100B1000B8F080910D0190910E0196958795909374
:100B20000E0180930D0180910D0190910E0186318F
:100B3000910530F486E190E090930E0180930D01D1
:100B40009091EC008091EE00981739F49091ED00AF
:100B50008091EF00981709F464C080911101909181
:100B60001201009731F480910D0190910E010097D0
:100B700041F18091110190911201909314018093A1
:100B8000130180910D0190910E01909329018093A2
:100B90002801109212011092110110920E01109270
:100BA0000D01109233011092320110922301109224
:100BB000220110921D0110921C01109259011092F5
:100BC0005801EFE4F0E08081882359F58091EC0032
:100BD0009091ED00692F0E949609809113019091E8
:100BE000140190931201809311018091280190913A
:100BF000290190930E0180930D0180911101909134
:100C000012019695879590931D0180931C01809108
:100C10000D0190910E0196958795909359018093BF
:100C2000580120911101309112018091240190917D
:100C30002501A901481B590BCA019C838B83209174
:100C40001C0130911D018B819C81820F931F909319
:100C50001D0180931C0180911C0190911D0151E0A8
:100C6000853A950734F084EA91E090931D018093D2
:100C70001C0180911C0190911D012EEF8C35920773
:100C800034F48CE59EEF90931D0180931C018091BC
:100C9000240190912501009751F4809111019091C8
:100CA0001201009721F410921D0110921C018091F5
:100CB0001C0190911D019E838D834D815E81552382
:100CC0002CF48D819E8101969E838D838D819E81E2
:100CD000959587959093230180932201809122011D
:100CE00090912301833D910534F082ED90E0909343
:100CF0002301809322018091220190912301992365
:100D000024F4109223011092220120910D013091C0
:100D10000E018091670190916801A901481B590B50
:100D2000CA019A83898320915801309159018981A0
:100D30009A81820F931F909359018093580180915B
:100D400058019091590151E0853A950734F084EAB1
:100D500091E09093590180935801809158019091AE
:100D600059012EEF8C35920734F48CE59EEF909369
:100D70005901809358018091670190916801009713
:100D800051F480910D0190910E01009721F4109281
:100D900059011092580180915801909159019887FA
:100DA0008F834F81588555232CF48F819885019628
:100DB00098878F838F819885959587959093330138
:100DC000809332018091320190913301833D9105EE
:100DD00034F082ED90E09093330180933201809162
:100DE000320190913301992354F4109233011092FF
:100DF000320105C080914B01815080934B011092CC
:100E000020019091150180916D01981749F0809112
:100E1000150180936D01E0916200F09163000995E6
:100E200028960FB6F894DEBF0FBECDBFCF91DF91ED
:100E30000895DF93CF9300D0CDB7DEB789836A835F
:100E40008981893C10F088EC89838A81893C10F083
:100E500088EC8A838981882F90E090931201809397
:100E600011018A81882F90E090930E0180930D01EB
:100E70000F900F90CF91DF910895DF93CF9300D023
:100E800000D00F92CDB7DEB7898389818093F000BF
:100E90008981813019F08981823029F481E090E0E4
:100EA0009D838C8302C01D821C828C818093EC0008
:100EB0008981813019F08981833029F481E090E0C3
:100EC0009B838A8302C01B821A828A818093ED00F1
:100ED0000F900F900F900F900F90CF91DF9108958A
:100EE000DF93CF93CDB7DEB72A970FB6F894DEBF66
:100EF0000FBECDBF9C838B837E836D831A868B81CF
:100F00009C81992314F481E08A878A858093EC0080
:100F100019868D819E81992314F481E089878985C2
:100F20008093ED008B819C81181619061CF48B812F
:100F3000888703C08B818195888788858A838B8188
:100F40009C81181619061CF48D818F8303C08D8136
:100F500081958F838F8189838A8169810E94190796
:100F60002A960FB6F894DEBF0FBECDBFCF91DF91AA
:100F70000895DF93CF9300D0CDB7DEB780911501F0
:100F80008170882351F4809115018270882329F49F
:100F900081E090E09A83898302C01A821982898154
:100FA0000F900F90CF91DF910895DF93CF93CDB73E
:100FB000DEB7109212011092110110920E011092E0
:100FC0000D0110921D0110921C01109259011092F6
:100FD0005801809115018E7F809315018091150134
:100FE0008D7F809315018091150180936D01E091B3
:100FF0006200F09163000995CF91DF910895DF932E
:10100000CF9300D000D00F92CDB7DEB789836A832B
:101010005C834B832D838091150181608093150142
:101020008091150182608093150110925E011092EB
:101030005D01109227011092260189818731D0F03D
:101040008981282F30E086EF9FEF821B930B880F5A
:10105000991F9C018B819C81820F931F90935E014D
:1010600080935D0180915D0190915E0190932701D5
:10107000809326018B819C8102979093310180930C
:101080003001809130019091310190930C01809357
:101090000B018B819C818832910500F588E290E0FC
:1010A0009C838B8384E190E09093310180933001A5
:1010B000809130019091310190930C0180930B014C
:1010C0008AE090E090935E0180935D0180915D01E4
:1010D00090915E0190932701809326018B819C81E2
:1010E00021E080399207E0F489818932C8F088E2F2
:1010F00089838B819C819C01369527953695279510
:101100008B819C81821B930B90935E0180935D0188
:1011100080915D0190915E0190932701809326015B
:1011200010926A011092690110925C0110925B01A9
:10113000898169810E9419078A810E943D078B81FC
:101140009C8190933901809338018B819C8190938D
:101150001A01809319018091150180936D0180918E
:10116000150180936D01E0916200F0916300099593
:101170008D81882339F002C00E94F7110E94B907BF
:101180008823D1F30F900F900F900F900F90CF9175
:10119000DF910895DF93CF93CDB7DEB727970FB6D2
:1011A000F894DEBF0FBECDBF8B836C835E834D830F
:1011B0002F83809115018160809315018091150125
:1011C0008260809315018D819E81CC01A0E0B0E00A
:1011D00020EB32E040E050E0BC01CD010E94A316BC
:1011E000DC01CB0124E630E040E050E0BC01CD0161
:1011F0000E94D616DA01C9019A83898389819A816E
:101200008456904090935E0180935D0189819A811C
:1012100084569040909327018093260189819A817A
:10122000909331018093300189819A8190930C01D0
:1012300080930B0189819A8188329105E0F488E2DC
:1012400090E09A83898384E190E0909331018093C8
:10125000300184E190E090930C0180930B018AE0CF
:1012600090E090935E0180935D018AE090E090931E
:101270002701809326018B816B810E9419078C8145
:101280000E943D0710926A011092690110925C0160
:1012900010925B0189819A81909339018093380182
:1012A00089819A8190931A01809319018091150187
:1012B00080936D01E0916200F091630009958F8148
:1012C000882339F002C00E94F7110E94B9078823D1
:1012D000D1F327960FB6F894DEBF0FBECDBFCF91E6
:1012E000DF910895DF93CF9300D0CDB7DEB7898328
:1012F0006A838981833D10F082ED89838A81833DF1
:1013000010F082ED8A838A81882F90E090933301D8
:10131000809332018981882F90E0909323018093FC
:1013200022010F900F90CF91DF910895DF93CF931B
:1013300000D0CDB7DEB789836A8389818093EE00C0
:101340008A818093EF0089818093EC008A81809369
:10135000ED008981882341F0A5E3B0E0E5E3F0E00A
:10136000808184608C9307C0A5E3B0E0E5E3F0E002
:1013700080818B7F8C938A81882341F0A5E3B0E044
:10138000E5E3F0E0808188608C9307C0A5E3B0E0DE
:10139000E5E3F0E08081877F8C930F900F90CF91F1
:1013A000DF910895DF93CF9300D0CDB7DEB7898367
:1013B0006A8307C0A9E5B0E0E9E5F0E080818068D4
:1013C0008C93809117018823A9F78981882F90E059
:1013D0008F7390709C01002436952795079436955D
:1013E00027950794322F202D8A81882F90E08F73C4
:1013F0009070822B932B90639093370180933601EA
:10140000809116018064809316010F900F90CF9108
:10141000DF9108951F920F920FB60F9211248F93B0
:101420009F93AF93BF93EF93FF93DF93CF93CDB78A
:10143000DEB780916400823008F065C08091F200D0
:101440008823D9F18091F2008C33C8F48091510146
:101450009091520180709074009749F0A2E3B0E03F
:10146000E2E3F0E0908180E889278C9320C0A2E33A
:10147000B0E0E2E3F0E080818F778C9318C0809138
:1014800051019091520180709074009741F0A2E355
:10149000B0E0E2E3F0E080818F778C9308C0A2E3B4
:1014A000B0E0E2E3F0E0908180E889278C938091BE
:1014B000F20081508093F20054C08091170188237C
:1014C000D1F0A2E3B0E0E2E3F0E080818F778C938B
:1014D0008091510190915201880F991F9093520170
:1014E0008093510188E78093F20080911701815029
:1014F0008093170136C0A2E3B0E0E2E3F0E0808120
:101500008F778C932EC080911B018823E1F080910E
:1015100016018170882349F4A8E3B0E0E8E3F0E025
:10152000908180E489278C9308C0A5E3B0E0E5E3CF
:10153000F0E0908180E889278C9380911B01815095
:1015400080931B010EC0A8E3B0E0E8E3F0E08081E7
:1015500080648C93A5E3B0E0E5E3F0E080818068EF
:101560008C93CF91DF91FF91EF91BF91AF919F91BC
:101570008F910F900FBE0F901F9018951F920F9292
:101580000FB60F9211248F939F93EF93FF93DF93E6
:10159000CF930F92CDB7DEB780916400833021F0F6
:1015A000809164008630C1F4809116018071882397
:1015B00099F4809116018072882371F0E6E3F0E0DF
:1015C0008081882F90E084709070009729F480913A
:1015D0006C018F5F80936C01E6E3F0E08081809185
:1015E00016018D7F809316010F90CF91DF91FF91AF
:1015F000EF919F918F910F900FBE0F901F901895B4
:10160000DF93CF9300D0CDB7DEB79A8389830F9055
:101610000F90CF91DF910895DF93CF9300D0CDB796
:10162000DEB79A83898389819A819093660080933B
:1016300065000F900F90CF91DF910895DF93CF93C6
:10164000CDB7DEB7CF91DF910895DF93CF9300D070
:10165000CDB7DEB79A83898389819A819093680098
:10166000809367000F900F90CF91DF910895DF93E3
:10167000CF93CDB7DEB72E970FB6F894DEBF0FBE6F
:10168000CDBF80912E0190912F018230910508F4F9
:101690004DC2809116018071882309F024C2809187
:1016A0006400282F30E03E872D878D859E8582300F
:1016B000910509F4B9C02D853E852330310554F4D8
:1016C0008D859E850097C9F02D853E852130310599
:1016D00089F10FC28D859E858530910509F454C12D
:1016E0002D853E852630310509F483C18D859E8583
:1016F0008330910509F4CDC0FCC1A9E5B0E0E9E56E
:10170000F0E080818F778C93A2E3B0E0E2E3F0E039
:1017100080818F778C93A8E3B0E0E8E3F0E08081EC
:1017200080648C93A5E3B0E0E5E3F0E0808180681D
:101730008C93DFC180911701882309F04DC08091FF
:10174000160180748823C1F0809136019091370191
:1017500090935201809351018EE080931701809104
:1017600016018F7B80931601A9E5B0E0E9E5F0E072
:10177000808180688C931CC0A9E5B0E0E9E5F0E0C9
:1017800080818F778C93A2E3B0E0E2E3F0E0808188
:101790008F778C93A8E3B0E0E8E3F0E08081806489
:1017A0008C93A5E3B0E0E5E3F0E0808180688C9362
:1017B0009091F7009C871B862C85243110F031E036
:1017C0003B878C858F5F8093F7008B85882359F04A
:1017D00082E08093640007C0A9E5B0E0E9E5F0E0AD
:1017E000808180688C93809116018870882309F429
:1017F00080C1E0916500F091660080917001909148
:1018000071010995809170019091710190931F0170
:1018100080931E0110927101109270018091160147
:10182000877F8093160165C1A9E5B0E0E9E5F0E0A6
:1018300080818F778C93A2E3B0E0E2E3F0E08081D7
:101840008F778C93A8E3B0E0E8E3F0E080818064D8
:101850008C93A5E3B0E0E5E3F0E0808180688C93B1
:1018600010921B0110926C011092F6001092F5007C
:10187000809116018E7F80931601809116018062FF
:101880008093160183E08093F70083E080936400E7
:1018900030C180911B018823E1F49091F7009A8771
:1018A00019862A85233010F031E039878A858F5FC9
:1018B0008093F7008985882361F0A9E5B0E0E9E528
:1018C000F0E0808180688C9388E280931B01109205
:1018D000F70080914C01882369F080916C0182307F
:1018E00048F010926C0181E080934C0185E0809378
:1018F0006400FFC080916C01863048F010926C014A
:1019000081E080934C0185E080936400F2C02091D7
:10191000F5003091F60038872F831E828F819885DD
:101920008E30910510F091E09E838F81988501960D
:101930009093F6008093F5002E81222309F4D9C0FC
:1019400010924C0185E080936400A9E5B0E0E9E5E0
:10195000F0E080818F778C93A2E3B0E0E2E3F0E0E7
:1019600080818F778C93A8E3B0E0E8E3F0E080819A
:1019700080648C93A5E3B0E0E5E3F0E080818068CB
:101980008C9310921B01B5C0A9E5B0E0E9E5F0E049
:1019900080818F778C93A2E3B0E0E2E3F0E0808176
:1019A0008F778C93A8E3B0E0E8E3F0E08081806477
:1019B0008C93A5E3B0E0E5E3F0E0808180688C9350
:1019C00010921B0110926C011092F6001092F5001B
:1019D00080911601816080931601809116018062CA
:1019E0008093160183E08093F70086E08093640083
:1019F00080C080911B018823E1F43091F7003D8382
:101A00001C828D81833010F091E09C838D818F5FEB
:101A10008093F7002C81222361F0A9E5B0E0E9E58D
:101A2000F0E0808180688C9388E280931B011092A3
:101A3000F70080915601882369F080916C01823013
:101A400048F010926C0181E08093560181E0809310
:101A500064004FC080916C01863048F010926C0198
:101A600081E08093560181E08093640042C08091C0
:101A7000F5009091F6009B838A8319822A813B812D
:101A80002E30310510F031E039838A819B81019637
:101A90009093F6008093F5008981882351F110928C
:101AA000560181E080936400A9E5B0E0E9E5F0E04B
:101AB00080818F778C93A2E3B0E0E2E3F0E0808155
:101AC0008F778C93A8E3B0E0E8E3F0E08081806456
:101AD0008C93A5E3B0E0E5E3F0E0808180688C932F
:101AE00010921B0106C01092F6001092F5001092A1
:101AF000F7009091F40080914C01981731F4909187
:101B0000F30080915601981769F080914C01809301
:101B1000F400809156018093F300E0916700F0910A
:101B20006800099510922F0110922E012E960FB683
:101B3000F894DEBF0FBECDBFCF91DF910895DF9344
:101B4000CF93CDB7DEB710926400A9E5B0E0E9E528
:101B5000F0E080818F778C93A2E3B0E0E2E3F0E0E5
:101B600080818F778C93A8E3B0E0E8E3F0E0808198
:101B700080648C93A5E3B0E0E5E3F0E080818068C9
:101B80008C931092560110924C01CF91DF910895E1
:101B9000DF93CF93CDB7DEB7A9E5B0E0E9E5F0E09C
:101BA00080818F778C93A2E3B0E0E2E3F0E0808164
:101BB0008F778C93A8E3B0E0E8E3F0E08081806465
:101BC0008C93A5E3B0E0E5E3F0E0808180688C933E
:101BD0001092560110924C0181E080936400CF91E5
:101BE000DF910895DF93CF93CDB7DEB7A1E3B0E0E7
:101BF000E1E3F0E080818F7B8C93A2E3B0E0E2E34D
:101C0000F0E080818F7B8C93A7E3B0E0E7E3F0E026
:101C10008081877F8C93A8E3B0E0E8E3F0E08081E7
:101C2000877F8C93A8E3B0E0E8E3F0E080818F7BCE
:101C30008C93A5E3B0E0E5E3F0E080818F778C93AF
:101C4000CF91DF910895DF93CF93CDB7DEB7A1E3B6
:101C5000B0E0E1E3F0E0808180648C93A2E3B0E047
:101C6000E2E3F0E0808180648C93A7E3B0E0E7E3F7
:101C7000F0E08081877F8C93A8E3B0E0E8E3F0E0B8
:101C80008081877F8C93CF91DF910895DF93CF93ED
:101C9000CDB7DEB7A1E3B0E0E1E3F0E080818F7B78
:101CA0008C93A2E3B0E0E2E3F0E080818F7B8C9341
:101CB000A7E3B0E0E7E3F0E0808188608C93A8E3DD
:101CC000B0E0E8E3F0E0808188608C93CF91DF9111
:101CD0000895DF93CF93CDB7DEB7A1E3B0E0E1E3A2
:101CE000F0E0808180648C93A2E3B0E0E2E3F0E076
:101CF000808180648C93A7E3B0E0E7E3F0E080812B
:101D000088608C93A8E3B0E0E8E3F0E0808188602D
:101D10008C93CF91DF910895DF93CF93CDB7DEB74A
:101D2000A8E3B0E0E8E3F0E0808180618C938091EB
:101D30002101843018F483E080932101CF91DF9159
:101D40000895DF93CF9300D0CDB7DEB7A8E3B0E01E
:101D5000E8E3F0E080818F7E8C93809121018430D4
:101D600090F480912101882321F480914F018823F0
:101D700029F081E090E09A83898302C01A82198257
:101D80008981809321010F900F90CF91DF91089569
:101D90001F920F920FB60F9211242F933F935F93D0
:101DA0006F937F938F939F93AF93BF93EF93FF9323
:101DB000DF93CF93CDB7DEB72B97DEBFCDBF80913A
:101DC0000F019091100101969093100180930F01E3
:101DD000809163018F5F80936301209166012B875F
:101DE0001A868B85893010F091E09A878B858F5FFA
:101DF000809366012A85222309F4ECC180913A017F
:101E0000882F90E081709070882349F080913B0189
:101E100090913C01019690933C0180933B0180910D
:101E20003A01882F90E082709070009749F080917D
:101E30003D0190913E01019690933E0180933D01BA
:101E400080913A01882F90E084709070009749F05B
:101E500080913F01909140010196909340018093C1
:101E60003F0180913A01882F90E088709070009730
:101E700049F0809141019091420101969093420175
:101E80008093410180913A01882F90E08071907099
:101E9000009749F0809143019091440101969093FD
:101EA00044018093430180913A01882F90E0807231
:101EB0009070009749F080914501909146010196FC
:101EC000909346018093450180913A01882F90E0DC
:101ED00080749070009749F080914701909148017B
:101EE0000196909348018093470180913A0188239D
:101EF0004CF48091490190914A01019690934A01D6
:101F00008093490180915701898718869985993C6A
:101F100010F021E0288789858F5F8093570188859D
:101F20008823E9F080913401909135019093680104
:101F30008093670180915F019091600190932501EA
:101F400080932401109235011092340110926001A7
:101F500010925F0181E080932001109257018091DF
:101F60002101833008F0A3C080912101823009F063
:101F70006BC080914F01882309F04BC08091FC0019
:101F80009091FD009F838E8328EC30E08E819F81AD
:101F9000B9010E94C2161D82009711F491E09D8341
:101FA0008E819F8101969093FD008093FC002D818E
:101FB000222309F47CC08091FC009091FD002FE069
:101FC000813A9207A8F0A7E3B0E0E7E3F0E0808170
:101FD0008D7F8C93A8E3B0E0E8E3F0E080818D7F13
:101FE0008C93109221011092FD001092FC005FC0B2
:101FF000A7E3B0E0E7E3F0E0908182E089278C93EB
:10200000A8E3B0E0E8E3F0E0908182E089278C93D8
:102010004EC080914F018071882371F4A7E3B0E036
:10202000E7E3F0E080818D7F8C93A8E3B0E0E8E304
:10203000F0E080818D7F8C931092FD001092FC0067
:1020400081E08093210133C08091FC009091FD00DC
:102050002EE2813E920710F1809121018130B1F48E
:102060001092210180914F018071882391F4A7E3A0
:10207000B0E0E7E3F0E080818D7F8C93A8E3B0E0EF
:10208000E8E3F0E080818D7F8C9303C082E0809351
:1020900021011092FD001092FC0009C08091FC000B
:1020A0009091FD0001969093FD008093FC0080913B
:1020B0002E0190912F018330910548F480912E01DB
:1020C00090912F01019690932F0180932E01809182
:1020D0004E01873328F480914E018F5F80934E012B
:1020E00080915A01843328F480915A018F5F809344
:1020F0005A01809155018C831B829C81933010F092
:1021000021E02B838C818F5F809355018B81882305
:1021100009F45EC080915001282F30E08091320197
:102120009091330128173907D9F080915001282F59
:1021300030E080913201909133012817390734F44F
:10214000809150018F5F8093500105C080915001B4
:10215000815080935001EAE4F0E080915001808347
:1021600080917201282F30E080912201909123010B
:1021700028173907D9F080917201282F30E080911B
:102180002201909123012817390734F480917201BC
:102190008F5F8093720105C080917201815080939E
:1021A0007201E8E4F0E08091720180838091720115
:1021B000882321F480915001882329F0EFE4F0E096
:1021C00082EA808303C0EFE4F0E0108210925501B0
:1021D00010926601809116018870882309F077C0FB
:1021E0008091F8009091F9009A8389838091FA0098
:1021F0008F5F8093FA008091FA008631F0F0898138
:102200009A8180709074009789F489819A81807096
:102210009072009759F089819A819093710180930F
:1022200070018091160188608093160180911601DB
:102230008F7E809316011A821982E6E3F0E0908186
:102240008091FB008927882F90E084709070009720
:10225000C1F18091FB0080958093FB008091FA0092
:10226000873038F4809116018F7E809316011A8290
:10227000198289819A81009721F08091FA008F302C
:1022800000F18091160180618093160189819A8105
:1022900080709074009731F489819A81880F991F1A
:1022A0009A8389838091FB00882F90E084709070DE
:1022B000009729F489819A8181609A838983109299
:1022C000FA0089819A819093F9008093F8002B9607
:1022D000DEBFCDBFCF91DF91FF91EF91BF91AF9165
:1022E0009F918F917F916F915F913F912F910F906F
:1022F0000FBE0F901F901895DF93CF930F92CDB71D
:10230000DEB78983109263019091630189819817E8
:10231000D8F30F90CF91DF910895DF93CF9300D042
:102320000F92CDB7DEB79A83898303C08AE00E94FB
:102330007C111B8289819A81009711F081E08B8347
:1023400089819A8101979A8389838B81882371F788
:102350000F900F900F90CF91DF910895DF93CF935F
:1023600000D00F92CDB7DEB79A83898301C00000F9
:102370001B8289819A81009711F081E08B8389818A
:102380009A8101979A8389838B81882381F70F90A3
:102390000F900F90CF91DF910895DF93CF93CDB73A
:1023A000DEB7AAE3B0E0EAE3F0E0808180618C93DD
:1023B000ABE3B0E0EBE3F0E0808180618C93CF9100
:1023C000DF910895DF93CF93CDB7DEB7ABE3B0E0F5
:1023D000EBE3F0E080818F7E8C93AAE3B0E0EAE348
:1023E000F0E080818F7E8C93CF91DF910895DF9311
:1023F000CF93CDB7DEB70E94DB020E94370B0E945D
:1024000063020E947304CF91DF910895DF93CF930D
:102410000F92CDB7DEB7EBE3F0E01082E8E3F0E037
:102420001082E5E3F0E01082E2E3F0E081E08083F7
:10243000EAE3F0E01082E7E3F0E088E58083E4E39C
:10244000F0E08CE88083E1E3F0E082EF8083F894B1
:10245000A8E3B0E0E8E3F0E080818F7D8C93A7E310
:10246000B0E0E7E3F0E0808180628C938C91A2E39E
:10247000B0E0E2E3F0E080818F778C930E94F20D70
:10248000E0E4F0E01082E9E2F0E08CE08083EBE24F
:10249000F0E01082E0E4F0E086E88083EAE2F0E039
:1024A00088E98083E7E2F0E01082E6E2F0E086E18E
:1024B0008083E0E5F0E01082E5E5F0E085E08083F0
:1024C000EBE5F0E080EE8083E4E5F0E01082E3E508
:1024D000F0E08AE08083ECE5F0E083E68083EFE4DF
:1024E000F0E082EA8083EEE4F0E081E18083E6E4DC
:1024F000F0E082ED90E091838083EAE4F0E01082E6
:10250000E8E4F0E0108280E060E00E949609E5E4F3
:10251000F0E089E08083E3E4F0E08EE68083E9E5A3
:10252000F0E082E080838091160181608093160143
:1025300081E08093640078940F90CF91DF910895AB
:10254000DF93CF930F92CDB7DEB78983F894E2E2A1
:10255000F0E089818083E3E2F0E08FEF8083E6E5BD
:10256000F0E084E080837894E6E5F0E085EC808319
:102570000F90CF91DF9108951F920F920FB60F9297
:1025800011242F933F938F939F93AF93BF93EF9318
:10259000FF93DF93CF9300D0CDB7DEB7E1E2F0E059
:1025A0008081282F30E03A83298389819A8180397C
:1025B000910509F49CC029813A81213931059CF4A7
:1025C00089819A818037910509F489C029813A81EE
:1025D0002038310509F45AC089819A8180369105E5
:1025E00009F449C098C029813A81283A3105B9F0E7
:1025F00089819A81893A91053CF429813A81203A6E
:10260000310509F47EC087C089819A81883B910594
:1026100061F029813A81203C3105F9F07CC084E0E9
:102620008093020181E08093000180910201843057
:1026300079F4A3E2B0E020910301822F90E0FC0145
:10264000EA57FE4F80818C93822F8F5F8093030126
:10265000E6E5F0E085EC808362C010920201109202
:1026600003011092000181E08093FE00E6E5F0E0B6
:1026700085EC808354C081E08093010182E08093E7
:102680000201E6E5F0E085EC808349C0809102011B
:10269000823069F4E3E2F0E080818093030180916D
:1026A00003018093FF0083E08093020113C08091B7
:1026B0000201833079F430910301832F90E0E3E24B
:1026C000F0E02081FC01EA58FE4F2083832F8F5FCA
:1026D00080930301E6E5F0E085EC808320C081E093
:1026E00080930201E6E5F0E085EC808318C0E3E228
:1026F000F0E0808180937501E6E5F0E085EC808371
:102700000EC085E080930201E6E5F0E085EC808371
:102710001092010104C0E6E5F0E084E880830F90A8
:102720000F90CF91DF91FF91EF91BF91AF919F916A
:102730008F913F912F910F900FBE0F901F90189582
:10274000DF93CF930F92CDB7DEB78983EBE2F0E052
:102750008081882F90E0807290700097B9F3ECE24E
:10276000F0E0898180830F90CF91DF910895DF930E
:10277000CF9300D0CDB7DEB79A8389830BC0E981B0
:10278000FA81208189819A8101969A838983822F97
:102790000E94A013E981FA818081882381F70F903C
:1027A0000F90CF91DF910895DF93CF9300D000D0A9
:1027B00000D0CDB7DEB79E838D8303C08C810E948D
:1027C000A0138D819E819B838A838D819E8101963A
:1027D0009E838D83EA81FB818491898389818C83A7
:1027E0008C81882359F726960FB6F894DEBF0FBE6A
:1027F000CDBFCF91DF910895DF93CF9300D000D06C
:10280000CDB7DEB79A8389836B834C838C81282F65
:1028100030E089819A81820F931F9A8389830EC049
:10282000E981FA81208189819A8101969A8389833D
:10283000822F0E94A0138B8181508B83E981FA81C2
:102840008081882319F08B81882351F70F900F9096
:102850000F900F90CF91DF910895DF93CF93CDB775
:10286000DEB764970FB6F894DEBF0FBECDBF9B8B6B
:102870008A8B6C8B8C89482F50E08A899B899E01BA
:102880002F5F3F4FB9010E940217CE0101960E94AF
:10289000B71364960FB6F894DEBF0FBECDBFCF91CD
:1028A000DF910895DF93CF93CDB7DEB766970FB66C
:1028B000F894DEBF0FBECDBF9C8B8B8B6D8B4E8B88
:1028C0008D89482F50E08B899C899E012E5F3F4F58
:1028D000B9010E940217CE0102960E94F816982FA5
:1028E0008E89891B8983898118167CF406C08981A9
:1028F0008150898380E30E94A01389811816BCF35C
:10290000CE0102960E94B71309C089818195282FB4
:10291000CE0102966E89422F0E94FC1366960FB676
:10292000F894DEBF0FBECDBFCF91DF9108951F9207
:102930000F920FB60F9211242F933F938F939F9373
:10294000EF93FF93DF93CF93CDB7DEB7809107016D
:1029500090910601891B8032E8F490910501292F9E
:1029600030E0ECE2F0E08081F901E954FE4F808331
:10297000892F8F5F80930501809107018F5F80937E
:10298000070180910501813210F01092050110922B
:10299000B60108C0ECE2F0E080818093080181E09C
:1029A0008093B601CF91DF91FF91EF919F918F912D
:1029B0003F912F910F900FBE0F901F901895DF93AE
:1029C000CF930F92CDB7DEB71092B6019091070169
:1029D000809106019817C9F0809106018F5F80935E
:1029E000060180910401813210F0109204012091BF
:1029F0000401822F90E0FC01E954FE4F808189831D
:102A0000822F8F5F8093040101C0198289810F900A
:102A1000CF91DF910895DF93CF9300D000D0CDB751
:102A2000DEB79B838A836C8319821092B60123C020
:102A3000809106018F5F809306018981282F30E005
:102A40008A819B81DC01A20FB31F20910401822F98
:102A500090E0FC01E954FE4F80818C9389818F5F67
:102A60008983822F8F5F80930401809104018132DA
:102A700010F01092040190910701809106019817BF
:102A800021F099818C81981798F289810F900F908D
:102A90000F900F90CF91DF910895DF93CF93CDB733
:102AA000DEB79091070180910601292F281B822F04
:102AB000CF91DF910895DF93CF93CDB7DEB7AAE230
:102AC000B0E0EAE2F0E080818F778C93ECE2F0E016
:102AD00080818093090110920401109205011092E7
:102AE0000601109207011092B601AAE2B0E0EAE2F4
:102AF000F0E0808180688C93CF91DF910895DF931F
:102B0000CF93CDB7DEB781E090E09093E70180935B
:102B1000E6011092D9011092D80182E090E09093E2
:102B2000DB018093DA011092DD011092DC0110923A
:102B3000E1011092E0011092DF011092DE0181E0CC
:102B400090E09093E5018093E4011092E3011092EC
:102B5000E2010E9406120E948C0E0E94B4150E948F
:102B600056160E94F711F9CFDF93CF9300D0CDB75F
:102B7000DEB78091E6019091E7019A83898389818C
:102B80009A818130910569F089819A81813091051E
:102B900008F487C089819A818230910509F45AC06E
:102BA00080C089E690E00E94B7138091E401909183
:102BB000E501009761F08CE390E09093DD01809354
:102BC000DC0181E090E09093E1018093E0010E94BC
:102BD000E8018823E9F08CE790E00E94B7130E9497
:102BE000D5071092E1011092E00181E090E090930E
:102BF000DF018093DE0183E090E09093DB0180931E
:102C0000DA0182E090E09093E7018093E60149C009
:102C10000E941902882309F444C08DE890E00E94C4
:102C2000B7130E94D5071092E1011092E00181E0F4
:102C300090E09093DF018093DE0182E090E090933A
:102C4000DB018093DA0182E090E09093E7018093CA
:102C5000E60127C08FE990E00E94B7138091E4015C
:102C60009091E5010097E9F08EEA90E00E94B71399
:102C70001092DF011092DE0181E090E09093E1017B
:102C80008093E00181E090E09093E7018093E6017A
:102C90008091E2019091E30101969093E30180938A
:102CA000E2010F900F90CF91DF910895DF93CF93C2
:102CB000CDB7DEB78091E0019091E1010097B9F0C6
:102CC0008091E2019091E3018530910584F48FEBCE
:102CD00090E00E94B7138091DC019091DD0120917A
:102CE000DC013091DD01B9010E9470071BC08091A9
:102CF000DE019091DF010097A9F08BEC90E00E943B
:102D0000B7138091DC019091DD01282F8091DA01C9
:102D10009091DB01982F822F692F4AE550E021E046
:102D20000E94CA080E94B907882351F089ED90E0FB
:102D30000E94B71381E090E09093E5018093E40155
:102D4000CF91DF910895629FD001739FF001829F20
:102D5000E00DF11D649FE00DF11D929FF00D839F2A
:102D6000F00D749FF00D659FF00D9927729FB00DC7
:102D7000E11DF91F639FB00DE11DF91FBD01CF01DA
:102D800011240895AA1BBB1B51E107C0AA1FBB1F3A
:102D9000A617B70710F0A61BB70B881F991F5A95E7
:102DA000A9F780959095BC01CD010895A1E21A2E56
:102DB000AA1BBB1BFD010DC0AA1FBB1FEE1FFF1FDF
:102DC000A217B307E407F50720F0A21BB30BE40B2F
:102DD000F50B661F771F881F991F1A9469F7609576
:102DE0007095809590959B01AC01BD01CF01089530
:102DF000E82FF92F01900020E9F7809590958E0F2C
:102E00009F1F0895E62FF72F2E2F3F2FE894423073
:102E1000C4F04532B4F44A3029F497FB1EF490957F
:102E200081959F4F642F7727ADDF805D8A330CF04B
:102E3000895D8193862F972F0097A1F716F45DE2A5
:102E400051931082822F932F00C0A82FB92FE82F03
:102E5000F92F672F71917723E1F7329704C07C91A6
:102E60006D9370836291AE17BF07C8F30895F8940D
:022E7000FFCF92
:102E72004A02CC0301000B1E0B53544154453A2025
:102E8200445249564520534944450A0042554D5043
:102E9200455220484954204C4546540A0042554D5B
:102EA200504552204849542052494748540A005339
:102EB200544154453A20524F544154450A00524F0E
:102EC2005441544520434F4D504C4554450A006DE2
:102ED2006F76696E67206E6F770A00726F74617425
:102EE200696E67206E6F770A004D6F76656D656E4D
:0C2EF2007420636F6D706C6574650A00DD
:00000001FF
